{
  "_format": "hh-sol-artifact-1",
  "contractName": "Hive",
  "sourceName": "contracts/Hive.sol",
  "abi": [
    {
      "inputs": [
        {
          "internalType": "address",
          "name": "_owner",
          "type": "address"
        },
        {
          "internalType": "uint16",
          "name": "_honeyFee",
          "type": "uint16"
        },
        {
          "internalType": "address",
          "name": "_talentLayerIdAddress",
          "type": "address"
        },
        {
          "internalType": "address",
          "name": "_talentLayerServiceAddress",
          "type": "address"
        },
        {
          "internalType": "address",
          "name": "_talentLayerEscrowAddress",
          "type": "address"
        }
      ],
      "stateMutability": "nonpayable",
      "type": "constructor"
    },
    {
      "anonymous": false,
      "inputs": [
        {
          "indexed": false,
          "internalType": "string",
          "name": "dataUri",
          "type": "string"
        }
      ],
      "name": "DataUriUpdated",
      "type": "event"
    },
    {
      "anonymous": false,
      "inputs": [
        {
          "indexed": true,
          "internalType": "uint256",
          "name": "proposalRequestId",
          "type": "uint256"
        },
        {
          "indexed": false,
          "internalType": "uint256",
          "name": "amount",
          "type": "uint256"
        }
      ],
      "name": "FundsShared",
      "type": "event"
    },
    {
      "anonymous": false,
      "inputs": [
        {
          "indexed": false,
          "internalType": "uint256",
          "name": "userId",
          "type": "uint256"
        }
      ],
      "name": "HoneyFeesClaimed",
      "type": "event"
    },
    {
      "anonymous": false,
      "inputs": [
        {
          "indexed": false,
          "internalType": "uint256",
          "name": "userId",
          "type": "uint256"
        }
      ],
      "name": "MemberJoined",
      "type": "event"
    },
    {
      "anonymous": false,
      "inputs": [
        {
          "indexed": true,
          "internalType": "uint256",
          "name": "id",
          "type": "uint256"
        },
        {
          "indexed": false,
          "internalType": "uint256",
          "name": "ownerId",
          "type": "uint256"
        },
        {
          "indexed": false,
          "internalType": "uint256[]",
          "name": "members",
          "type": "uint256[]"
        },
        {
          "indexed": false,
          "internalType": "uint16[]",
          "name": "shares",
          "type": "uint16[]"
        },
        {
          "indexed": false,
          "internalType": "uint256",
          "name": "serviceId",
          "type": "uint256"
        },
        {
          "indexed": false,
          "internalType": "address",
          "name": "rateToken",
          "type": "address"
        },
        {
          "indexed": false,
          "internalType": "uint256",
          "name": "rateAmount",
          "type": "uint256"
        },
        {
          "indexed": false,
          "internalType": "uint256",
          "name": "platformId",
          "type": "uint256"
        },
        {
          "indexed": false,
          "internalType": "string",
          "name": "dataUri",
          "type": "string"
        },
        {
          "indexed": false,
          "internalType": "uint256",
          "name": "expirationDate",
          "type": "uint256"
        }
      ],
      "name": "ProposalRequestCreated",
      "type": "event"
    },
    {
      "anonymous": false,
      "inputs": [
        {
          "indexed": true,
          "internalType": "uint256",
          "name": "proposalRequestId",
          "type": "uint256"
        },
        {
          "indexed": false,
          "internalType": "uint256",
          "name": "executor",
          "type": "uint256"
        }
      ],
      "name": "ProposalRequestExecuted",
      "type": "event"
    },
    {
      "inputs": [
        {
          "internalType": "address",
          "name": "_address",
          "type": "address"
        },
        {
          "internalType": "uint256",
          "name": "_platformId",
          "type": "uint256"
        },
        {
          "internalType": "string",
          "name": "_handle",
          "type": "string"
        }
      ],
      "name": "_mintTlId",
      "outputs": [
        {
          "internalType": "uint256",
          "name": "",
          "type": "uint256"
        }
      ],
      "stateMutability": "payable",
      "type": "function"
    },
    {
      "inputs": [
        {
          "internalType": "address",
          "name": "_tokenAddress",
          "type": "address"
        }
      ],
      "name": "claimHoneyFees",
      "outputs": [],
      "stateMutability": "nonpayable",
      "type": "function"
    },
    {
      "inputs": [
        {
          "internalType": "uint256",
          "name": "_serviceId",
          "type": "uint256"
        },
        {
          "internalType": "address",
          "name": "_rateToken",
          "type": "address"
        },
        {
          "internalType": "uint256",
          "name": "_rateAmount",
          "type": "uint256"
        },
        {
          "internalType": "uint256",
          "name": "_platformId",
          "type": "uint256"
        },
        {
          "internalType": "string",
          "name": "_dataUri",
          "type": "string"
        },
        {
          "internalType": "uint256",
          "name": "_expirationDate",
          "type": "uint256"
        },
        {
          "internalType": "uint256[]",
          "name": "_members",
          "type": "uint256[]"
        },
        {
          "internalType": "uint16[]",
          "name": "_shares",
          "type": "uint16[]"
        }
      ],
      "name": "createProposalRequest",
      "outputs": [],
      "stateMutability": "nonpayable",
      "type": "function"
    },
    {
      "inputs": [],
      "name": "dataUri",
      "outputs": [
        {
          "internalType": "string",
          "name": "",
          "type": "string"
        }
      ],
      "stateMutability": "view",
      "type": "function"
    },
    {
      "inputs": [
        {
          "internalType": "uint256",
          "name": "_proposalRequestId",
          "type": "uint256"
        }
      ],
      "name": "executeProposalRequest",
      "outputs": [],
      "stateMutability": "nonpayable",
      "type": "function"
    },
    {
      "inputs": [],
      "name": "groupId",
      "outputs": [
        {
          "internalType": "uint256",
          "name": "",
          "type": "uint256"
        }
      ],
      "stateMutability": "view",
      "type": "function"
    },
    {
      "inputs": [],
      "name": "honeyFee",
      "outputs": [
        {
          "internalType": "uint16",
          "name": "",
          "type": "uint16"
        }
      ],
      "stateMutability": "view",
      "type": "function"
    },
    {
      "inputs": [
        {
          "internalType": "address",
          "name": "_address",
          "type": "address"
        }
      ],
      "name": "isMember",
      "outputs": [
        {
          "internalType": "bool",
          "name": "",
          "type": "bool"
        }
      ],
      "stateMutability": "view",
      "type": "function"
    },
    {
      "inputs": [
        {
          "internalType": "bytes",
          "name": "_ownerSignature",
          "type": "bytes"
        },
        {
          "internalType": "uint256",
          "name": "_platformId",
          "type": "uint256"
        },
        {
          "internalType": "string",
          "name": "_handle",
          "type": "string"
        }
      ],
      "name": "join",
      "outputs": [],
      "stateMutability": "payable",
      "type": "function"
    },
    {
      "inputs": [
        {
          "internalType": "uint256",
          "name": "",
          "type": "uint256"
        }
      ],
      "name": "members",
      "outputs": [
        {
          "internalType": "bool",
          "name": "",
          "type": "bool"
        }
      ],
      "stateMutability": "view",
      "type": "function"
    },
    {
      "inputs": [],
      "name": "owner",
      "outputs": [
        {
          "internalType": "address",
          "name": "",
          "type": "address"
        }
      ],
      "stateMutability": "view",
      "type": "function"
    },
    {
      "inputs": [
        {
          "internalType": "uint256",
          "name": "",
          "type": "uint256"
        }
      ],
      "name": "proposalRequests",
      "outputs": [
        {
          "internalType": "uint256",
          "name": "ownerId",
          "type": "uint256"
        },
        {
          "internalType": "uint256",
          "name": "serviceId",
          "type": "uint256"
        },
        {
          "internalType": "address",
          "name": "rateToken",
          "type": "address"
        },
        {
          "internalType": "uint256",
          "name": "rateAmount",
          "type": "uint256"
        },
        {
          "internalType": "uint256",
          "name": "platformId",
          "type": "uint256"
        },
        {
          "internalType": "string",
          "name": "dataUri",
          "type": "string"
        },
        {
          "internalType": "uint256",
          "name": "expirationDate",
          "type": "uint256"
        },
        {
          "internalType": "enum Hive.ProposalRequestStatus",
          "name": "status",
          "type": "uint8"
        },
        {
          "internalType": "uint256",
          "name": "sharedAmount",
          "type": "uint256"
        }
      ],
      "stateMutability": "view",
      "type": "function"
    },
    {
      "inputs": [
        {
          "internalType": "uint256",
          "name": "_proposalRequestId",
          "type": "uint256"
        }
      ],
      "name": "shareFunds",
      "outputs": [],
      "stateMutability": "payable",
      "type": "function"
    },
    {
      "inputs": [
        {
          "internalType": "string",
          "name": "_dataUri",
          "type": "string"
        }
      ],
      "name": "updateDataUri",
      "outputs": [],
      "stateMutability": "nonpayable",
      "type": "function"
    },
    {
      "stateMutability": "payable",
      "type": "receive"
    }
  ],
  "bytecode": "0x60806040523480156200001157600080fd5b5060405162002f7f38038062002f7f833981016040819052620000349162000174565b600080546001600160a01b03199081166001600160a01b03868116919091179092556001805482168584161790556002805460038054909316898516179092559183166001600160b01b031990911617600160a01b61ffff871602179055620000aa60066200014e602090811b6200177d17901c565b60008054604051631847c06b60e01b81526001600160a01b0388811660048301526001936005939092911690631847c06b90602401602060405180830381865afa158015620000fd573d6000803e3d6000fd5b505050506040513d601f19601f82011682018060405250810190620001239190620001ec565b81526020810191909152604001600020805460ff191691151591909117905550620002069350505050565b80546001019055565b80516001600160a01b03811681146200016f57600080fd5b919050565b600080600080600060a086880312156200018d57600080fd5b620001988662000157565b9450602086015161ffff81168114620001b057600080fd5b9350620001c06040870162000157565b9250620001d06060870162000157565b9150620001e06080870162000157565b90509295509295909350565b600060208284031215620001ff57600080fd5b5051919050565b612d6980620002166000396000f3fe6080604052600436106100e15760003560e01c80638da5cb5b1161007f578063a230c52411610059578063a230c5241461024a578063a5e9a5e31461026a578063d867cb7f1461028a578063eb881686146102bf57600080fd5b80638da5cb5b146101dd5780639c0f386914610215578063a0f44c921461023557600080fd5b806338fcc692116100bb57806338fcc692146101425780635daf08ca146101685780637e213499146101a85780638a9b29eb146101bb57600080fd5b80631e26ec39146100ed578063284c65621461010f578063287a591e1461012f57600080fd5b366100e857005b600080fd5b3480156100f957600080fd5b5061010d610108366004611f49565b6102f4565b005b34801561011b57600080fd5b5061010d61012a366004611faa565b6103a8565b61010d61013d366004611fc7565b6104ff565b610155610150366004611fe0565b6109d9565b6040519081526020015b60405180910390f35b34801561017457600080fd5b50610198610183366004611fc7565b60056020526000908152604090205460ff1681565b604051901515815260200161015f565b61010d6101b6366004612079565b610b04565b3480156101c757600080fd5b506101d0610bed565b60405161015f919061213b565b3480156101e957600080fd5b506003546101fd906001600160a01b031681565b6040516001600160a01b03909116815260200161015f565b34801561022157600080fd5b5061010d610230366004612192565b610c7b565b34801561024157600080fd5b5061015561111e565b34801561025657600080fd5b50610198610265366004611faa565b611190565b34801561027657600080fd5b5061010d610285366004611fc7565b61121d565b34801561029657600080fd5b506002546102ac90600160a01b900461ffff1681565b60405161ffff909116815260200161015f565b3480156102cb57600080fd5b506102df6102da366004611fc7565b611699565b60405161015f9998979695949392919061227f565b6102fd33611190565b6103225760405162461bcd60e51b8152600401610319906122f8565b60405180910390fd5b8051602e146103615760405162461bcd60e51b815260206004820152600b60248201526a125b9d985b1a590818da5960aa1b6044820152606401610319565b600461036d82826123b0565b507f7c04794e4125f7b58018a2d56697f5cc4a734d9fcc9785cb90f88c6fbf1a3eb28160405161039d919061213b565b60405180910390a150565b6103b133611190565b6103cd5760405162461bcd60e51b8152600401610319906122f8565b6001600160a01b0381166103eb576103e6338247611786565b610465565b6040516370a0823160e01b81523060048201526000906001600160a01b038316906370a0823190602401602060405180830381865afa158015610432573d6000803e3d6000fd5b505050506040513d601f19601f82011682018060405250810190610456919061246f565b9050610463338383611786565b505b600054604051631847c06b60e01b81523360048201527fb7a3482583d392bae66619f018940995fddaefbf32bdcb99427e13537ae3d361916001600160a01b031690631847c06b90602401602060405180830381865afa1580156104cd573d6000803e3d6000fd5b505050506040513d601f19601f820116820180604052508101906104f1919061246f565b60405190815260200161039d565b600081815260076020908152604080832081516101608101835281548152600182018054845181870281018701909552808552919492938584019390929083018282801561056c57602002820191906000526020600020905b815481526020019060010190808311610558575b50505050508152602001600282018054806020026020016040519081016040528092919081815260200182805480156105ec57602002820191906000526020600020906000905b82829054906101000a900461ffff1661ffff16815260200190600201906020826001010492830192600103820291508084116105b35790505b50505091835250506003820154602082015260048201546001600160a01b03166040820152600582015460608201526006820154608082015260078201805460a09092019161063a90612328565b80601f016020809104026020016040519081016040528092919081815260200182805461066690612328565b80156106b35780601f10610688576101008083540402835291602001916106b3565b820191906000526020600020905b81548152906001019060200180831161069657829003601f168201915b505050918352505060088201546020820152600982015460409091019060ff1660018111156106e4576106e4612269565b60018111156106f5576106f5612269565b8152600a9190910154602090910152600154606082015160405163ef0e239b60e01b81529293506000926001600160a01b039092169163ef0e239b916107419160040190815260200190565b600060405180830381865afa15801561075e573d6000803e3d6000fd5b505050506040513d6000823e601f3d908101601f1916820160405261078691908101906124d0565b6002546080820151604051630fa683d360e01b81529293506000926001600160a01b0390921691630fa683d3916107c39160040190815260200190565b600060405180830381865afa1580156107e0573d6000803e3d6000fd5b505050506040513d6000823e601f3d908101601f1916820160405261080891908101906125d7565b905060008361014001518260a001516108219190612739565b9050600081116108675760405162461bcd60e51b81526020600482015260116024820152704e6f2066756e647320746f20736861726560781b6044820152606401610319565b60005b84602001515181101561097657600061271061ffff16866040015183815181106108965761089661274c565b602002602001015161ffff16846108ad9190612762565b6108b79190612779565b600080546020890151805193945091926001600160a01b0390911691636352211e91869081106108e9576108e961274c565b60200260200101516040518263ffffffff1660e01b815260040161090f91815260200190565b602060405180830381865afa15801561092c573d6000803e3d6000fd5b505050506040513d601f19601f82011682018060405250810190610950919061279b565b905061096181866060015184611786565b5050808061096e906127b8565b91505061086a565b506000858152600760205260408120600a0180548392906109989084906127d1565b909155505060405181815285907f09878d274ba57c2696b99f4697e0cff9133810b4287c3d9c17700ef47aaa003c9060200160405180910390a25050505050565b6000610a03604051806040016040528060078152602001666d696e74696e6760c81b8152506118aa565b6000805460405182916001600160a01b0316903490610a2a908990899089906024016127e4565b60408051601f198184030181529181526020820180516001600160e01b0316631d42fcb560e31b17905251610a5f9190612814565b60006040518083038185875af1925050503d8060008114610a9c576040519150601f19603f3d011682016040523d82523d6000602084013e610aa1565b606091505b509150915081610ae45760405162461bcd60e51b815260206004820152600e60248201526d135a5b9d1a5b99c819985a5b195960921b6044820152606401610319565b80806020019051810190610af8919061246f565b925050505b9392505050565b610b0e84846118f0565b60008054604051631847c06b60e01b81523360048201526001600160a01b0390911690631847c06b90602401602060405180830381865afa158015610b57573d6000803e3d6000fd5b505050506040513d601f19601f82011682018060405250810190610b7b919061246f565b905080600003610b9357610b903384846109d9565b90505b60008181526005602052604090819020805460ff19166001179055517f7ab4e987e2e22d1ad46ad0b33b94d45a3e9890c43a9165e0057d5ea6cbb1d0d990610bde9083815260200190565b60405180910390a15050505050565b60048054610bfa90612328565b80601f0160208091040260200160405190810160405280929190818152602001828054610c2690612328565b8015610c735780601f10610c4857610100808354040283529160200191610c73565b820191906000526020600020905b815481529060010190602001808311610c5657829003601f168201915b505050505081565b610c8433611190565b610ca05760405162461bcd60e51b8152600401610319906122f8565b82610ced5760405162461bcd60e51b815260206004820152601e60248201527f4d656d626572732073686f756c64206265206174206c65617374206f6e6500006044820152606401610319565b828114610d475760405162461bcd60e51b815260206004820152602260248201527f4d656d6265727320616e6420736861726573206c656e677468206d69736d61746044820152610c6d60f31b6064820152608401610319565b60005b83811015610dee5760056000868684818110610d6857610d6861274c565b602090810292909201358352508101919091526040016000205460ff16610ddc5760405162461bcd60e51b815260206004820152602260248201527f4d656d626572206973206e6f742061206d656d626572206f6620746865206869604482015261766560f01b6064820152608401610319565b80610de6816127b8565b915050610d4a565b50600254600160a01b900461ffff1660005b82811015610e5157838382818110610e1a57610e1a61274c565b9050602002016020810190610e2f9190612830565b610e3d9061ffff16836127d1565b915080610e49816127b8565b915050610e00565b506127108114610e9c5760405162461bcd60e51b81526020600482015260166024820152755368617265732073756d206973206e6f74203130302560501b6044820152606401610319565b6000610ea760065490565b60408051610160810191829052600054631847c06b60e01b9092523361016482015291925081906001600160a01b0316631847c06b6101848301602060405180830381865afa158015610efe573d6000803e3d6000fd5b505050506040513d601f19601f82011682018060405250810190610f22919061246f565b81526020018787808060200260200160405190810160405280939291908181526020018383602002808284376000920191909152505050908252506040805160208781028281018201909352878252928301929091889188918291850190849080828437600081840152601f19601f8201169050808301925050505050505081526020018e81526020018d6001600160a01b031681526020018c81526020018b81526020018a8a8080601f0160208091040260200160405190810160405280939291908181526020018383808284376000920182905250938552505050602082018a9052604090910190815260006020918201819052838152600782526040902082518155828201518051919261104192600185019290910190611d3b565b506040820151805161105d916002840191602090910190611d86565b506060820151600382015560808201516004820180546001600160a01b0319166001600160a01b0390921691909117905560a0820151600582015560c0820151600682015560e082015160078201906110b690826123b0565b50610100820151600882015561012082015160098201805460ff1916600183818111156110e5576110e5612269565b021790555061014082015181600a0155905050611106600680546001019055565b61110f81611a15565b50505050505050505050505050565b60008054604051631847c06b60e01b81523060048201526001600160a01b0390911690631847c06b90602401602060405180830381865afa158015611167573d6000803e3d6000fd5b505050506040513d601f19601f8201168201806040525081019061118b919061246f565b905090565b60008054604051631847c06b60e01b81526001600160a01b0384811660048301526005928492911690631847c06b90602401602060405180830381865afa1580156111df573d6000803e3d6000fd5b505050506040513d601f19601f82011682018060405250810190611203919061246f565b815260208101919091526040016000205460ff1692915050565b61122633611190565b6112425760405162461bcd60e51b8152600401610319906122f8565b60008181526007602090815260408083208151610160810183528154815260018201805484518187028101870190955280855291949293858401939092908301828280156112af57602002820191906000526020600020905b81548152602001906001019080831161129b575b505050505081526020016002820180548060200260200160405190810160405280929190818152602001828054801561132f57602002820191906000526020600020906000905b82829054906101000a900461ffff1661ffff16815260200190600201906020826001010492830192600103820291508084116112f65790505b50505091835250506003820154602082015260048201546001600160a01b03166040820152600582015460608201526006820154608082015260078201805460a09092019161137d90612328565b80601f01602080910402602001604051908101604052809291908181526020018280546113a990612328565b80156113f65780601f106113cb576101008083540402835291602001916113f6565b820191906000526020600020905b8154815290600101906020018083116113d957829003601f168201915b505050918352505060088201546020820152600982015460409091019060ff16600181111561142757611427612269565b600181111561143857611438612269565b8152600a919091015460209091015260008054604051631847c06b60e01b815233600482015292935090916001600160a01b0390911690631847c06b90602401602060405180830381865afa158015611495573d6000803e3d6000fd5b505050506040513d601f19601f820116820180604052508101906114b9919061246f565b825190915081036115225760405162461bcd60e51b815260206004820152602d60248201527f4f776e65722063616e6e6f74206578656375746520697473206f776e2070726f60448201526c1c1bdcd85b081c995c5d595cdd609a1b6064820152608401610319565b60008181526005602052604090205460ff166115505760405162461bcd60e51b8152600401610319906122f8565b6000826101200151600181111561156957611569612269565b146115b65760405162461bcd60e51b815260206004820152601f60248201527f50726f706f73616c2072657175657374206973206e6f742070656e64696e67006044820152606401610319565b6001546001600160a01b03166313ca98db6115cf61111e565b846060015185608001518660a001518760c001518860e001518961010001516040518863ffffffff1660e01b8152600401611610979695949392919061284d565b600060405180830381600087803b15801561162a57600080fd5b505af115801561163e573d6000803e3d6000fd5b505050600084815260076020908152604091829020600901805460ff1916600117905590518381528592507f38f209671c8171ab81794306906596fbe152fbe061d8488c2cba5497b67fa67d910160405180910390a2505050565b6007602081905260009182526040909120805460038201546004830154600584015460068501549585018054949693956001600160a01b0390931694919392916116e290612328565b80601f016020809104026020016040519081016040528092919081815260200182805461170e90612328565b801561175b5780601f106117305761010080835404028352916020019161175b565b820191906000526020600020905b81548152906001019060200180831161173e57829003601f168201915b5050505060088301546009840154600a909401549293909260ff909116915089565b80546001019055565b6001600160a01b038216600003611832576000836001600160a01b03168260405160006040518083038185875af1925050503d80600081146117e4576040519150601f19603f3d011682016040523d82523d6000602084013e6117e9565b606091505b505090508061182c5760405162461bcd60e51b815260206004820152600f60248201526e151c985b9cd9995c8819985a5b1959608a1b6044820152606401610319565b50505050565b60405163a9059cbb60e01b81526001600160a01b0384811660048301526024820183905283169063a9059cbb906044016020604051808303816000875af1158015611881573d6000803e3d6000fd5b505050506040513d601f19601f8201168201806040525081019061182c91906128ab565b505050565b6118ed816040516024016118be919061213b565b60408051601f198184030181529190526020810180516001600160e01b031663104c13eb60e21b179052611aa1565b50565b60408051633537b4b760e11b6020808301919091523060601b6bffffffffffffffffffffffff19166024830152825160188184030181526038830184528051908201207f19457468657265756d205369676e6564204d6573736167653a0a33320000000060588401526074808401829052845180850390910181526094909301909352815191012060006119ba8286868080601f016020809104026020016040519081016040528093929190818152602001838380828437600092019190915250611ac292505050565b6003549091506001600160a01b03808316911614611a0e5760405162461bcd60e51b8152602060048201526011602482015270496e76616c6964207369676e617475726560781b6044820152606401610319565b5050505050565b6000818152600760208190526040918290208054600382015460048301546005840154600685015460088601549751959789977f65e11e30c5dcc530b464788d3c8cd6cc16f580591988bf01c6f87dffda9e975797611a95979660018c019660028d019691956001600160a01b039091169491939092908d019190612c85565b60405180910390a25050565b80516a636f6e736f6c652e6c6f67602083016000808483855afa5050505050565b6000806000611ad18585611ae8565b91509150611ade81611b2d565b5090505b92915050565b6000808251604103611b1e5760208301516040840151606085015160001a611b1287828585611c77565b94509450505050611b26565b506000905060025b9250929050565b6000816004811115611b4157611b41612269565b03611b495750565b6001816004811115611b5d57611b5d612269565b03611baa5760405162461bcd60e51b815260206004820152601860248201527f45434453413a20696e76616c6964207369676e617475726500000000000000006044820152606401610319565b6002816004811115611bbe57611bbe612269565b03611c0b5760405162461bcd60e51b815260206004820152601f60248201527f45434453413a20696e76616c6964207369676e6174757265206c656e677468006044820152606401610319565b6003816004811115611c1f57611c1f612269565b036118ed5760405162461bcd60e51b815260206004820152602260248201527f45434453413a20696e76616c6964207369676e6174757265202773272076616c604482015261756560f01b6064820152608401610319565b6000807f7fffffffffffffffffffffffffffffff5d576e7357a4501ddfe92f46681b20a0831115611cae5750600090506003611d32565b6040805160008082526020820180845289905260ff881692820192909252606081018690526080810185905260019060a0016020604051602081039080840390855afa158015611d02573d6000803e3d6000fd5b5050604051601f1901519150506001600160a01b038116611d2b57600060019250925050611d32565b9150600090505b94509492505050565b828054828255906000526020600020908101928215611d76579160200282015b82811115611d76578251825591602001919060010190611d5b565b50611d82929150611e26565b5090565b82805482825590600052602060002090600f01601090048101928215611d765791602002820160005b83821115611def57835183826101000a81548161ffff021916908361ffff1602179055509260200192600201602081600101049283019260010302611daf565b8015611e1d5782816101000a81549061ffff0219169055600201602081600101049283019260010302611def565b5050611d829291505b5b80821115611d825760008155600101611e27565b634e487b7160e01b600052604160045260246000fd5b60405160c081016001600160401b0381118282101715611e7357611e73611e3b565b60405290565b60405161022081016001600160401b0381118282101715611e7357611e73611e3b565b604051601f8201601f191681016001600160401b0381118282101715611ec457611ec4611e3b565b604052919050565b60006001600160401b03821115611ee557611ee5611e3b565b50601f01601f191660200190565b600082601f830112611f0457600080fd5b8135611f17611f1282611ecc565b611e9c565b818152846020838601011115611f2c57600080fd5b816020850160208301376000918101602001919091529392505050565b600060208284031215611f5b57600080fd5b81356001600160401b03811115611f7157600080fd5b611f7d84828501611ef3565b949350505050565b6001600160a01b03811681146118ed57600080fd5b8035611fa581611f85565b919050565b600060208284031215611fbc57600080fd5b8135610afd81611f85565b600060208284031215611fd957600080fd5b5035919050565b600080600060608486031215611ff557600080fd5b833561200081611f85565b92506020840135915060408401356001600160401b0381111561202257600080fd5b61202e86828701611ef3565b9150509250925092565b60008083601f84011261204a57600080fd5b5081356001600160401b0381111561206157600080fd5b602083019150836020828501011115611b2657600080fd5b6000806000806060858703121561208f57600080fd5b84356001600160401b03808211156120a657600080fd5b6120b288838901612038565b90965094506020870135935060408701359150808211156120d257600080fd5b506120df87828801611ef3565b91505092959194509250565b60005b838110156121065781810151838201526020016120ee565b50506000910152565b600081518084526121278160208601602086016120eb565b601f01601f19169290920160200192915050565b602081526000610afd602083018461210f565b60008083601f84011261216057600080fd5b5081356001600160401b0381111561217757600080fd5b6020830191508360208260051b8501011115611b2657600080fd5b60008060008060008060008060008060006101008c8e0312156121b457600080fd5b8b359a506121c460208d01611f9a565b995060408c0135985060608c013597506001600160401b038060808e013511156121ed57600080fd5b6121fd8e60808f01358f01612038565b909850965060a08d0135955060c08d013581101561221a57600080fd5b61222a8e60c08f01358f0161214e565b909550935060e08d013581101561224057600080fd5b506122518d60e08e01358e0161214e565b81935080925050509295989b509295989b9093969950565b634e487b7160e01b600052602160045260246000fd5b60006101208b83528a602084015260018060a01b038a1660408401528860608401528760808401528060a08401526122b98184018861210f565b9150508460c0830152600284106122e057634e487b7160e01b600052602160045260246000fd5b60e08201939093526101000152979650505050505050565b60208082526016908201527529b2b73232b91034b9903737ba10309036b2b6b132b960511b604082015260600190565b600181811c9082168061233c57607f821691505b60208210810361235c57634e487b7160e01b600052602260045260246000fd5b50919050565b601f8211156118a557600081815260208120601f850160051c810160208610156123895750805b601f850160051c820191505b818110156123a857828155600101612395565b505050505050565b81516001600160401b038111156123c9576123c9611e3b565b6123dd816123d78454612328565b84612362565b602080601f83116001811461241257600084156123fa5750858301515b600019600386901b1c1916600185901b1785556123a8565b600085815260208120601f198616915b8281101561244157888601518255948401946001909101908401612422565b508582101561245f5787850151600019600388901b60f8161c191681555b5050505050600190811b01905550565b60006020828403121561248157600080fd5b5051919050565b600581106118ed57600080fd5b8051611fa581612488565b60006124ae611f1284611ecc565b90508281528383830111156124c257600080fd5b610afd8360208301846120eb565b6000602082840312156124e257600080fd5b81516001600160401b03808211156124f957600080fd5b9083019060c0828603121561250d57600080fd5b612515611e51565b825161252081612488565b80825250602083015160208201526040830151604082015260608301518281111561254a57600080fd5b83019150601f8201861361255d57600080fd5b61256c868351602085016124a0565b60608201526080830151608082015260a083015160a082015280935050505092915050565b8051611fa581611f85565b61ffff811681146118ed57600080fd5b8051611fa58161259c565b600082601f8301126125c857600080fd5b610afd838351602085016124a0565b6000602082840312156125e957600080fd5b81516001600160401b038082111561260057600080fd5b90830190610220828603121561261557600080fd5b61261d611e79565b8251815261262d60208401612591565b602082015261263e60408401612591565b604082015261264f60608401612591565b60608201526080830151608082015260a083015160a082015260c083015160c082015261267e60e084016125ac565b60e08201526101006126918185016125ac565b908201526101206126a38482016125ac565b908201526101408381015190820152610160808401519082015261018080840151908201526101a080840151908201526101c06126e1818501612495565b908201526101e083810151838111156126f957600080fd5b612705888287016125b7565b91830191909152506102009283015192810192909252509392505050565b634e487b7160e01b600052601160045260246000fd5b81810381811115611ae257611ae2612723565b634e487b7160e01b600052603260045260246000fd5b8082028115828204841417611ae257611ae2612723565b60008261279657634e487b7160e01b600052601260045260246000fd5b500490565b6000602082840312156127ad57600080fd5b8151610afd81611f85565b6000600182016127ca576127ca612723565b5060010190565b80820180821115611ae257611ae2612723565b60018060a01b038416815282602082015260606040820152600061280b606083018461210f565b95945050505050565b600082516128268184602087016120eb565b9190910192915050565b60006020828403121561284257600080fd5b8135610afd8161259c565b600061010089835288602084015260018060a01b03881660408401528660608401528560808401528060a08401526128878184018661210f565b60c0840194909452505080820360e090910152600081526020019695505050505050565b6000602082840312156128bd57600080fd5b81518015158114610afd57600080fd5b805480835260008281526020808220940193909190825b82600f82011015612a3557815461ffff8082168852602061290f818a01838560101c1661ffff169052565b6040612924818b018486851c1661ffff169052565b6060915061293c828b01848660301c1661ffff169052565b6080612951818c018587851c1661ffff169052565b60a09150612969828c01858760501c1661ffff169052565b60c061297e818d018688871c1661ffff169052565b60e09350612996848d01868860701c1661ffff169052565b61ffff86831c8616166101008d01526129bb6101208d01868860901c1661ffff169052565b61ffff86841c8616166101408d01526129e06101608d01868860b01c1661ffff169052565b61ffff86821c8616166101808d0152505050612a086101a08a01838560d01c1661ffff169052565b82901c1661ffff166101c088015260f01c6101e087015261020090950194600191909101906010016128e4565b90549082811015612a515761ffff821686526020909501946001015b82811015612a6e5761ffff601083901c1686526020909501946001015b82811015612a8c57602082901c61ffff168652602095909501946001015b82811015612aa95761ffff603083901c1686526020909501946001015b82811015612ac65761ffff604083901c1686526020909501946001015b82811015612ae35761ffff605083901c1686526020909501946001015b82811015612b005761ffff606083901c1686526020909501946001015b82811015612b1d5761ffff607083901c1686526020909501946001015b82811015612b3a5761ffff608083901c1686526020909501946001015b82811015612b575761ffff609083901c1686526020909501946001015b82811015612b745761ffff60a083901c1686526020909501946001015b82811015612b915761ffff60b083901c1686526020909501946001015b82811015612bae5761ffff60c083901c1686526020909501946001015b82811015612bcb5761ffff60d083901c1686526020909501946001015b82811015612be85761ffff60e083901c1686526020909501946001015b82811015612bfe5760f082901c86526020860195505b5093949350505050565b60008154612c1581612328565b808552602060018381168015612c325760018114612c4c57612c7a565b60ff1985168884015283151560051b880183019550612c7a565b866000528260002060005b85811015612c725781548a8201860152908301908401612c57565b890184019650505b505050505092915050565b89815261012060208083018290528a5491830182905260008b8152818120909261014085019290845b81811015612cca57835485529382019360019384019301612cae565b505050508281036040840152612ce0818b6128cd565b9050886060840152612cfd60808401896001600160a01b03169052565b8660a08401528560c084015282810360e0840152612d1b8186612c08565b915050826101008301529a995050505050505050505056fea2646970667358221220dce1dcd2faa062812a7be39eafb2b3d99a01a289fb3f40f53d282f968fdf9e3664736f6c63430008110033",
  "linkReferences": {},
  "deployedLinkReferences": {}
}