{
  "_format": "hh-sol-artifact-1",
  "contractName": "HiveFactory",
  "sourceName": "contracts/HiveFactory.sol",
  "abi": [
    {
      "inputs": [
        {
          "internalType": "address",
          "name": "_talentLayerIdAddress",
          "type": "address"
        },
        {
          "internalType": "address",
          "name": "_talentLayerServiceAddress",
          "type": "address"
        },
        {
          "internalType": "address",
          "name": "_talentLayerEscrowAddress",
          "type": "address"
        }
      ],
      "stateMutability": "nonpayable",
      "type": "constructor"
    },
    {
      "anonymous": false,
      "inputs": [
        {
          "indexed": false,
          "internalType": "uint256",
          "name": "id",
          "type": "uint256"
        },
        {
          "indexed": false,
          "internalType": "address",
          "name": "hiveAddress",
          "type": "address"
        },
        {
          "indexed": false,
          "internalType": "uint256",
          "name": "ownerId",
          "type": "uint256"
        },
        {
          "indexed": false,
          "internalType": "uint16",
          "name": "honeyFee",
          "type": "uint16"
        },
        {
          "indexed": false,
          "internalType": "address",
          "name": "paymasterAddress",
          "type": "address"
        }
      ],
      "name": "HiveCreated",
      "type": "event"
    },
    {
      "inputs": [
        {
          "internalType": "address",
          "name": "_address",
          "type": "address"
        },
        {
          "internalType": "uint256",
          "name": "_platformId",
          "type": "uint256"
        },
        {
          "internalType": "string",
          "name": "_handle",
          "type": "string"
        },
        {
          "internalType": "uint256",
          "name": "_price",
          "type": "uint256"
        }
      ],
      "name": "_mintTlId",
      "outputs": [
        {
          "internalType": "uint256",
          "name": "",
          "type": "uint256"
        }
      ],
      "stateMutability": "payable",
      "type": "function"
    },
    {
      "inputs": [
        {
          "internalType": "uint256",
          "name": "_platformId",
          "type": "uint256"
        },
        {
          "internalType": "string",
          "name": "_groupHandle",
          "type": "string"
        },
        {
          "internalType": "string",
          "name": "_ownerHandle",
          "type": "string"
        },
        {
          "internalType": "uint16",
          "name": "_honeyFee",
          "type": "uint16"
        }
      ],
      "name": "createHive",
      "outputs": [
        {
          "internalType": "uint256",
          "name": "",
          "type": "uint256"
        }
      ],
      "stateMutability": "payable",
      "type": "function"
    }
  ],
  "bytecode": "0x6080346100a057601f613b7138819003918201601f19168301916001600160401b038311848410176100a5578084926060946040528339810103126100a057610047816100bb565b906100606040610059602084016100bb565b92016100bb565b60018060a01b0380928160018060a01b031995168560005416176000551683600154161760015516906002541617600255604051613aa190816100d08239f35b600080fd5b634e487b7160e01b600052604160045260246000fd5b51906001600160a01b03821682036100a05756fe6080604052600436101561001257600080fd5b60003560e01c80633f3049ea1461033b576350e1b0161461003257600080fd5b60803660031901126102d25760243567ffffffffffffffff81116102d25761005e9036906004016103d3565b60443567ffffffffffffffff81116102d25761007e9036906004016103d3565b906064359061ffff821682036102d257600054604051631847c06b60e01b81523360048201529190602090839060249082906001600160a01b03165afa9182156102c657600092610307575b50811593846102ec575b50600054600154600254604051926001600160a01b03918216928216911667ffffffffffffffff612f568501908111908511176102b057612f56610530853933612f5685015261ffff87166020612f56860101526040612f56850101526060612f56840101526080612f568301015260a081612f5681010301906000f09081156102c6576001600160a01b039091169361017991906102e25734905b6004358661041a565b91600091610118461480156102d7575b6101e5575b937f08f5edecf743bd39258048c9272233723af390bef05d7a8f5cab7b879725741f9261ffff60a09360209760405194888652898601526040850152166060830152600180841b03166080820152a1604051908152f35b6000546040519193506001600160a01b03166105e680830167ffffffffffffffff8111848210176102b0576040928492613486843988825260208201520301906000f080156102c6576001600160a01b0316843b156102d257604051632a97fa7760e01b815260048101829052600081602481838a5af180156102c65761026e575b509161018e565b9490919267ffffffffffffffff86116102b0576040959095529391907f08f5edecf743bd39258048c9272233723af390bef05d7a8f5cab7b879725741f610267565b634e487b7160e01b600052604160045260246000fd5b6040513d6000823e3d90fd5b600080fd5b50617a694614610189565b3460011c90610170565b6103009192503460011c906004353361041a565b90386100d4565b9091506020813d602011610333575b8161032360209383610395565b810103126102d2575190386100ca565b3d9150610316565b60803660031901126102d2576004356001600160a01b03811681036102d25760443567ffffffffffffffff81116102d25760209161038061038d9236906004016103d3565b606435916024359061041a565b604051908152f35b90601f8019910116810190811067ffffffffffffffff8211176102b057604052565b67ffffffffffffffff81116102b057601f01601f191660200190565b81601f820112156102d2578035906103ea826103b7565b926103f86040519485610395565b828452602083830101116102d257816000926020809301838601378301015290565b919260018060a01b0393600093849286845416926040519560209889880194631d42fcb560e31b865216602488015260448701526060606487015280519081608488015288865b838110610517575050509461049260a482888883819b84010152601f80199101168101036084810184520182610395565b51925af1903d1561050f573d916104a8836103b7565b926104b66040519485610395565b83523d828585013e5b156104d95782828051810103126104d65750015190565b80fd5b60405162461bcd60e51b815260048101849052600e60248201526d135a5b9d1a5b99c819985a5b195960921b6044820152606490fd5b6060916104bf565b82810182015189820160a401528997508a910161046156fe6080604081815234620001775760a08262002f5680380380916200002482856200017c565b83398101031262000177576200003a82620001b6565b91602090818101519061ffff821682036200017757806200005e85859301620001b6565b926200007b60806200007360608501620001b6565b9301620001b6565b9360018060a01b039788808093169660018060a01b03199a8b968960009d8e5416178d5516866001541617600155168460025416176002551680926005541617600555600354339161ffff60a01b9060a01b169060018060b01b03191617176003556001600854016008556024855180948193631847c06b60e01b835260048301525afa9081156200016a57849162000133575b5083526007905290819020805460ff1916600117905551612d8a9081620001cc8239f35b90508181813d831162000162575b6200014d81836200017c565b810103126200015e5751826200010f565b8380fd5b503d62000141565b50505051903d90823e3d90fd5b600080fd5b601f909101601f19168101906001600160401b03821190821017620001a057604052565b634e487b7160e01b600052604160045260246000fd5b51906001600160a01b0382168203620001775756fe6080604052600436101561001b575b361561001957600080fd5b005b6000803560e01c80631e26ec39146122a7578063284c656214612131578063287a591e14611a015780632a97fa771461197157806338fcc6921461192c5780633f173526146119095780634f4c1ad0146118e05780635daf08ca146118b15780637e213499146116565780638616d85c1461159e5780638a9b29eb146114b85780638da5cb5b1461148f5780639c0f386914610894578063a230c52414610866578063a5e9a5e314610201578063d867cb7f146101dc578063d9ed1fee146101b35763eb881686146100ed575061000e565b346101b05760203660031901126101b0576004358152600960205260408120805490600381015460018060a01b036004830154169161017b6005820154600683015461013b600785016125e8565b91600885015496600a60ff60098801541696015496604051998a5260208a01526040890152606088015260808701526101208060a08801528601906126b1565b9260c0850152600281101561019c5783945060e08401526101008301520390f35b634e487b7160e01b85526021600452602485fd5b80fd5b50346101b057806003193601126101b0576004546040516001600160a01b039091168152602090f35b50346101b057806003193601126101b057602061ffff60035460a01c16604051908152f35b50346101b05760203660031901126101b05761022461021f33612706565b612801565b60043581526009602052604081209060405161023f81612495565b8254815260405161025e816102578160018801612901565b03826124da565b6020820152600283019260405180602086549182815201958552602085209085915b81600f8401106107a2579260249697819361032193600a9796549181811061078d575b818110610775575b81811061075e575b818110610746575b81811061072e575b818110610716575b8181106106fe575b8181106106e6575b8181106106ce575b8181106106b6575b81811061069e575b818110610686575b81811061066e575b818110610656575b81811061063e575b10610630575b5003826124da565b60408401526003810154606084015260048101546001600160a01b03166080840152600581015460a0840152600681015460c0840152610363600782016125e8565b60e0840152600881015461010084015261038860ff60098301541661012085016128b5565b01546101408201528254604051631847c06b60e01b81523360048201529260209184919082906001600160a01b03165afa9182156106255783926105ec575b50805182146105915781835260076020526103e860ff604085205416612801565b610120810151600281101561057d576105385760015483916001600160a01b0390911690610414612789565b9160608201519060018060a01b036080840151169360a08401519360c081015161010060e0830151920151843b156105345761048f89979360209389956040519b8c9a8b996313ca98db60e01b8b5260048b015260248a015260448901526064880152608487015261010060a48701526101048601906126b1565b9060c48501528284820391600319830160e48701525201925af1801561052957610511575b50506004358252600960205260096040832001600160ff198254161790556104da612789565b9060405191825260208201527ff3913536f47ce5715fcf97e1e92ab82bc1be4bb4c5f293e991dc612f219d8ae6604060043592a280f35b61051a906124c7565b6105255781386104b4565b5080fd5b6040513d84823e3d90fd5b8880fd5b60405162461bcd60e51b815260206004820152601f60248201527f50726f706f73616c2072657175657374206973206e6f742070656e64696e67006044820152606490fd5b634e487b7160e01b84526021600452602484fd5b60405162461bcd60e51b815260206004820152602d60248201527f4f776e65722063616e6e6f74206578656375746520697473206f776e2070726f60448201526c1c1bdcd85b081c995c5d595cdd609a1b6064820152608490fd5b9091506020813d60201161061d575b81610608602093836124da565b81010312610618575190386103c7565b600080fd5b3d91506105fb565b6040513d85823e3d90fd5b60f01c815260200138610319565b92602060019161ffff8560e01c168152019301610313565b92602060019161ffff8560d01c16815201930161030b565b92602060019161ffff8560c01c168152019301610303565b92602060019161ffff8560b01c1681520193016102fb565b92602060019161ffff8560a01c1681520193016102f3565b92602060019161ffff8560901c1681520193016102eb565b92602060019161ffff8560801c1681520193016102e3565b92602060019161ffff8560701c1681520193016102db565b92602060019161ffff8560601c1681520193016102d3565b92602060019161ffff8560501c1681520193016102cb565b92602060019161ffff8560401c1681520193016102c3565b92602060019161ffff8560301c1681520193016102bb565b92602060019161ffff85831c1681520193016102b3565b92602060019161ffff8560101c1681520193016102ab565b92602060019161ffff851681520193016102a3565b9660016102006010928a5461ffff80821683528082871c166020840152808260201c16604084015280826060828260301c168187015282826080828260401c16818a0152828260a092828260501c16848d0152828260c0981c16878d0152828260701c1660e08d01521c166101008a0152828260901c166101208a01521c16610140870152828260b01c166101608701521c16610180840152808260d01c166101a08401528160e01c166101c083015260f01c6101e0820152019801920191610280565b50346101b05760203660031901126101b057602061088a61088561256b565b612706565b6040519015158152f35b50346101b0576101003660031901126101b0576024356001600160a01b03811681036106185760849182356001600160401b038111610525576108db903690600401612581565b929060c4356001600160401b03811161148b576108fc9036906004016126d6565b94909260e4356001600160401b0381116114875761091e9036906004016126d6565b909761092c61021f33612706565b8715611442578188036113f557865b88811061137757505061ffff60035460a01c1686905b828210611345576127109150036113075760249460085497602060018060a01b0389541660405198898092631847c06b60e01b82523360048301525afa9687156112fc5788976112c8575b50604051966109aa88612495565b87526109b58161289e565b916109c360405193846124da565b8183526020830190368360051b8201116112c45780915b8360051b820183106112b4575050505060208601526109f88161289e565b90610a0660405192836124da565b8082526020820198368260051b8201116112b05780995b8260051b82018b1061129357505050604085015260043560608501526001600160a01b0316608084015260443560a084015260643560c0840152610a6391369190612516565b60e082015260a4356101008201528161012082015281610140820152828252600960205260408220908051825560208101518051906001600160401b03821161115b57600160401b821161115b576020906001850154836001870155808410611276575b500160018401855260208520855b838110611262575050505060408101518051906001600160401b03821161115b57600160401b821161115b576020906002850154836002870155808410611209575b5001906002840185526020852090855b8160041c81106111c05750600f198116810361116f575b505050606081015160038301556004820160018060a01b036080830151166bffffffffffffffffffffffff60a01b82541617905560a0810151600583015560c0810151600683015560e08101518051906001600160401b03821161115b578190610bab60078601546125ae565b601f811161111d575b50602090601f83116001146110ae5786926110a3575b50508160011b916000199060031b1c19161760078301555b6101008101516008830155610120810151600281101561057d57600a916101409160ff80196009870154169116176009850155015191015560016008540160085581815260096020526040812091610c38612789565b8354600385015460018060a01b03600487015416600587015460068801549160088901549460405196875260208701526101406040870152610c81610140870160018b01612901565b868103606088015260028a018054808352908a526020808b20920195918a91905b81600f840110610fc1575491818110610fac575b818110610f94575b818110610f7d575b818110610f65575b818110610f4d575b818110610f35575b818110610f1d575b818110610f05575b818110610eed575b818110610ed5575b818110610ebd575b818110610ea5575b818110610e8d575b818110610e75575b818110610e5d575b10610e4c575b50608087015260a086015260c085015260e08401528281036101008401526007859601805490610d5b826125ae565b8084529160018116908115610e055750600114610da6575b5050506101208201527fe8497acd73f68d3d9873122b907db74a5acb794132385c6af763c7fd10ebf5a99080850390a280f35b86526020862091965085915b818310610deb5750509490940160200193807fe8497acd73f68d3d9873122b907db74a5acb794132385c6af763c7fd10ebf5a983610d73565b6001816020929493945483858c0101520191019190610db2565b60ff191660208086019190915292151560051b90930190910196508291507fe8497acd73f68d3d9873122b907db74a5acb794132385c6af763c7fd10ebf5a9905083610d73565b60f01c85526020909401938a610d2c565b96602060019161ffff8560e01c168152019701610d26565b96602060019161ffff8560d01c168152019701610d1e565b96602060019161ffff8560c01c168152019701610d16565b96602060019161ffff8560b01c168152019701610d0e565b96602060019161ffff8560a01c168152019701610d06565b96602060019161ffff8560901c168152019701610cfe565b96602060019161ffff8560801c168152019701610cf6565b96602060019161ffff8560701c168152019701610cee565b96602060019161ffff8560601c168152019701610ce6565b96602060019161ffff8560501c168152019701610cde565b96602060019161ffff8560401c168152019701610cd6565b96602060019161ffff8560301c168152019701610cce565b96602060019161ffff85831c168152019701610cc6565b96602060019161ffff8560101c168152019701610cbe565b96602060019161ffff85168152019701610cb6565b9660016102006010928a5461ffff8116825261ffff81861c16602083015261ffff8160201c16604083015261ffff8160301c16606083015261ffff8160401c16608083015261ffff8160501c1660a083015261ffff8160601c1660c083015261ffff8160701c1660e083015261ffff8160801c1661010083015261ffff8160901c1661012083015261ffff8160a01c1661014083015261ffff8160b01c1661016083015261ffff8160c01c1661018083015261ffff8160d01c166101a083015261ffff8160e01c166101c083015260f01c6101e0820152019801920191610ca2565b015190508680610bca565b9250600785018652602086209086935b601f1984168510611102576001945083601f198116106110e9575b505050811b016007830155610be2565b015160001960f88460031b161c191690558680806110d9565b818101518355602094850194600190930192909101906110be565b61114b9060078701885260208820601f850160051c81019160208610611151575b601f0160051c01906128ea565b87610bb4565b909150819061113e565b634e487b7160e01b85526041600452602485fd5b8592865b600f1983168303811061118f57505060041c0155848080610b3e565b909360206111b760019261ffff8851169085851b60031b61ffff811b9283911b169119161790565b95019101611173565b86875b601081106111d8575083820155600101610b27565b9490602061120060019261ffff8551169089851b60031b61ffff811b9283911b169119161790565b920195016111c3565b61123b90600287018852600f84892091601e8760011b1680611241575b500160041c810190600f860160041c016128ea565b87610b17565b6000199081848a0160041c86010191825491890360031b1c1690558b611226565b600190602084519401938184015501610ad5565b60018601875282872061128d9181019085016128ea565b87610ac7565b61ffff8b35168b3503610534578a35815260209a8b019a01610a1d565b8780fd5b82358152602092830192016109da565b8980fd5b9096506020813d6020116112f4575b816112e4602093836124da565b810103126106185751953861099c565b3d91506112d7565b6040513d8a823e3d90fd5b60405162461bcd60e51b81526020600482015260166024820152755368617265732073756d206973206e6f74203130302560501b6044820152606490fd5b61135082848c61286b565b359061ffff8216809203610534576113719161136b91612891565b91612846565b90610951565b611382818a8961286b565b35885260206007815260ff60408a205416156113a757506113a290612846565b61093b565b90506040519062461bcd60e51b82526004820152602260248201527f4d656d626572206973206e6f742061206d656d626572206f6620746865206869604482015261766560f01b6064820152fd5b60405162461bcd60e51b815260206004820152602260248201527f4d656d6265727320616e6420736861726573206c656e677468206d69736d61746044820152610c6d60f31b6064820152fd5b60405162461bcd60e51b815260206004820152601e60248201527f4d656d626572732073686f756c64206265206174206c65617374206f6e6500006044820152606490fd5b8580fd5b8380fd5b50346101b057806003193601126101b0576005546040516001600160a01b039091168152602090f35b50346101b057806003193601126101b05760405160006006546114da816125ae565b80845290600190818116908115611577575060011461151c575b61151884611504818603826124da565b6040519182916020835260208301906126b1565b0390f35b6006600090815292507ff652222313e28459528d920b65115c16c04f3efc82aaedc97be59f3f377c0d3f5b82841061155f575050508101602001611504826114f4565b80546020858701810191909152909301928101611547565b60ff191660208087019190915292151560051b8501909201925061150491508390506114f4565b50346101b05760203660031901126101b0576004356001600160401b038111610525576115cf90369060040161254d565b6115db61021f33612706565b6115e8602e8251146129aa565b81546001600160a01b03169082906115fe612789565b92803b1561165257611634938360405180968195829463f160068f60e01b845260048401526040602484015260448301906126b1565b03925af1801561052957611646575080f35b61164f906124c7565b80f35b8280fd5b5060603660031901126101b0576001600160401b0360043581811161165257611683903690600401612581565b9160443581811161183d5761169c90369060040161254d565b9260405192602093848101633537b4b760e11b81526024943060601b868401526018835260408301918383108284111761189e5760a09083604052845190209360608101947f19457468657265756d205369676e6564204d6573736167653a0a3332000000008652607c820152603c845201908282109082111761188b576040525190206117419261173992611733913691612516565b90612ae8565b9190916129e4565b6005546001600160a01b0391908216908216036118535782829186541660405193848092631847c06b60e01b82523360048301525afa9182156118485785926117f3575b50907f09f489e6eb0f594d1ae6af1e7bf66f628b75c026bf5952b2c5d725d0c8e9d752936040939282156117e0575b505080855260078252828520805460ff191660011790556117d3612789565b918351928352820152a180f35b6117ec92503533612bd2565b38806117b4565b9280925083813d8311611841575b61180b81836124da565b8101031261183d57915190917f09f489e6eb0f594d1ae6af1e7bf66f628b75c026bf5952b2c5d725d0c8e9d752611785565b8480fd5b503d611801565b6040513d87823e3d90fd5b60405162461bcd60e51b81526004810184905260118184015270496e76616c6964207369676e617475726560781b6044820152606490fd5b634e487b7160e01b895260416004528589fd5b634e487b7160e01b8a526041600452868afd5b50346101b05760203660031901126101b05760ff60406020926004358152600784522054166040519015158152f35b50346101b057806003193601126101b0576003546040516001600160a01b039091168152602090f35b50346101b057806003193601126101b0576020611924612789565b604051908152f35b5060603660031901126101b05761194161256b565b90604435906001600160401b0382116101b057602061192484611967366004870161254d565b9060243590612bd2565b50346101b05760203660031901126101b05761198b61256b565b6003546001600160a01b039190821633036119bc57166bffffffffffffffffffffffff60a01b600454161760045580f35b60405162461bcd60e51b815260206004820152601960248201527f53656e646572206973206e6f742048697665466163746f7279000000000000006044820152606490fd5b5060203660031901126101b057600435815260096020526040812060405191611a2983612495565b81548352604051611a41816102578160018701612901565b602084015260028201604051808260208294549384815201908552602085209285905b80600f83011061206757611aea94549181811061078d578181106107755781811061075e578181106107465781811061072e57818110610716578181106106fe578181106106e6578181106106ce578181106106b65781811061069e578181106106865781811061066e578181106106565781811061063e5710610630575003826124da565b604084015260038201546060840190815260048301546001600160a01b03166080850152600583015460a0850152600683015460c085015291600a90611b32600782016125e8565b60e08601526008810154610100860152611b5760ff60098301541661012087016128b5565b01546101408401528060018060a01b0360015416925160246040518095819363ef0e239b60e01b835260048301525afa918215611f73578192611f80575b5080608060018060a01b0360025416930151602460405180958193630fa683d360e01b835260048301525afa918215611f73578192611dda575b5060a082015191610140840151928084810311611dc657838114611d8d57825b602086015151811015611cda57612710611c1d61ffff611c138460408b0151612996565b51168785036128d7565b0460018060a01b038554166020611c3784828b0151612996565b516024604051809481936331a9108f60e11b835260048301525afa908115611ccf578691611c8a575b506060850151611c859392611c809290916001600160a01b031690612c87565b612846565b611bef565b90506020813d602011611cc7575b81611ca5602093836124da565b8101031261148757611c859291611cbe611c8092612973565b91509192611c60565b3d9150611c98565b6040513d88823e3d90fd5b5091929060018060a01b03600454169081611d52575b505060043583526009602052600a6040842001611d108284038254612891565b9055611d1a612789565b916040519283520360208201527f3883f7043acc90474d660677ad79e3559193f9b007a3396886c0d1ae9532dd62604060043592a280f35b611d8691612710611d6e61ffff60035460a01c168688036128d7565b6060909301519204916001600160a01b031690612c87565b8380611cf0565b60405162461bcd60e51b81526020600482015260116024820152704e6f2066756e647320746f20736861726560781b6044820152606490fd5b634e487b7160e01b83526011600452602483fd5b9091503d908183823e611ded82826124da565b6020818381010312611652578051906001600160401b03821161148b57610220828201848301031261148b5760405192836102208101106001600160401b036102208601111761115b57610220840160405281830180518552611e5290602001612973565b6020850152611e65604084840101612973565b6040850152611e78606084840101612973565b60608501528183016080818101519086015260a0808201519086015260c08082015190860152611eaa9060e001612987565b60e0850152611ebe61010084840101612987565b610100850152611ed361012084840101612987565b6101208501528183016101408181015190860152610160808201519086015261018080820151908601526101a080820151908601526101c090810151906005821015611f6f578501526101e0908184840101516001600160401b038111611f6f578484010190808401601f83011215611f6f578151611f58929185019160200161293e565b908401520161020090810151908201529038611bcf565b8680fd5b50604051903d90823e3d90fd5b9091503d908183823e611f9382826124da565b6020818381010312611652578051906001600160401b03821161148b5760c0828201848301031261148b57604051928360c08101106001600160401b0360c08601111761115b5760c08401604052828201516005811015611487578452818301602081810151908601526040808201519086015260600151906001600160401b03821161148757808301601f838686010101121561148757838301909101805160a094939261204992908401919060200161293e565b60608501520160808181015190840152015160a08201529038611b95565b916010919350610200600191865461ffff80821683528082871c166020840152808260201c16604084015280826060828260301c168187015282826080828260401c16818a0152828260a092828260501c16848d0152828260c0981c16878d0152828260701c1660e08d01521c166101008a0152828260901c166101208a01521c16610140870152828260b01c166101608701521c16610180840152808260d01c166101a08401528160e01c166101c083015260f01c6101e0820152019401920184929391611a64565b50346101b0576020806003193601126105255761214c61256b565b61215861021f33612706565b6001600160a01b03918183168061223b5750612178602492479033612c87565b80612181612789565b9385541660405193848092631847c06b60e01b82523360048301525afa9182156122305784926121df575b50916040917f8bb13773f46db3e674bcaa18a92af3253680c613eb6d7eb12688d45dbb50ead5938351928352820152a180f35b9150918282813d8311612229575b6121f781836124da565b8101031261148b57905190917f8bb13773f46db3e674bcaa18a92af3253680c613eb6d7eb12688d45dbb50ead56121ac565b503d6121ed565b6040513d86823e3d90fd5b81602491604051928380926370a0823160e01b82523060048301525afa908115611848578591612279575b506122749060249333612c87565b612178565b90508181813d83116122a0575b61229081836124da565b8101031261183d57516024612266565b503d612286565b50346101b057602090816003193601126101b0576001600160401b0391600435838111611652576122dc90369060040161254d565b6122e861021f33612706565b6122f5602e8251146129aa565b8051938411612481576123096006546125ae565b601f8111612434575b508193601f8111600114612393578084957f1e72c479b6f2a89396870f00df9d05ab7646ee8e49ecd1b03ef2bc230b8da0019591612388575b508160011b916000199060031b1c1916176006555b61238261236b612789565b9160408051948594855284015260408301906126b1565b0390a180f35b90508201513861234b565b600684527ff652222313e28459528d920b65115c16c04f3efc82aaedc97be59f3f377c0d3f94601f198216855b81811061241d57509582916001937f1e72c479b6f2a89396870f00df9d05ab7646ee8e49ecd1b03ef2bc230b8da001979810612404575b5050811b01600655612360565b84015160001960f88460031b161c1916905538806123f7565b8483015188556001909701969185019185016123c0565b61247b90600685527ff652222313e28459528d920b65115c16c04f3efc82aaedc97be59f3f377c0d3f601f870160051c81019185881061115157601f0160051c01906128ea565b38612312565b634e487b7160e01b83526041600452602483fd5b61016081019081106001600160401b038211176124b157604052565b634e487b7160e01b600052604160045260246000fd5b6001600160401b0381116124b157604052565b90601f801991011681019081106001600160401b038211176124b157604052565b6001600160401b0381116124b157601f01601f191660200190565b929192612522826124fb565b9161253060405193846124da565b829481845281830111610618578281602093846000960137010152565b9080601f830112156106185781602061256893359101612516565b90565b600435906001600160a01b038216820361061857565b9181601f84011215610618578235916001600160401b038311610618576020838186019501011161061857565b90600182811c921680156125de575b60208310146125c857565b634e487b7160e01b600052602260045260246000fd5b91607f16916125bd565b90604051918260008254926125fc846125ae565b90818452600194858116908160001461266b5750600114612628575b5050612626925003836124da565b565b9093915060005260209081600020936000915b81831061265357505061262693508201013880612618565b8554888401850152948501948794509183019161263b565b91505061262694506020925060ff191682840152151560051b8201013880612618565b60005b8381106126a15750506000910152565b8181015183820152602001612691565b906020916126ca8151809281855285808601910161268e565b601f01601f1916010190565b9181601f84011215610618578235916001600160401b038311610618576020808501948460051b01011161061857565b60008054604051631847c06b60e01b81526001600160a01b039384166004820152919260209183916024918391165afa908115610529578291612757575b5081526007602052604090205460ff1690565b90506020813d8211612781575b81612771602093836124da565b81010312610525575160ff612744565b3d9150612764565b600054604051631847c06b60e01b815230600482015290602090829060249082906001600160a01b03165afa9081156127f5576000916127c7575090565b906020823d82116127ed575b816127e0602093836124da565b810103126101b057505190565b3d91506127d3565b6040513d6000823e3d90fd5b1561280857565b60405162461bcd60e51b815260206004820152601660248201527529b2b73232b91034b9903737ba10309036b2b6b132b960511b6044820152606490fd5b60001981146128555760010190565b634e487b7160e01b600052601160045260246000fd5b919081101561287b5760051b0190565b634e487b7160e01b600052603260045260246000fd5b9190820180921161285557565b6001600160401b0381116124b15760051b60200190565b60028210156128c15752565b634e487b7160e01b600052602160045260246000fd5b8181029291811591840414171561285557565b8181106128f5575050565b600081556001016128ea565b90815480825260208092019260005281600020916000905b828210612927575050505090565b835485529384019360019384019390910190612919565b9092919261294b816124fb565b9161295960405193846124da565b82948284528282011161061857602061262693019061268e565b51906001600160a01b038216820361061857565b519061ffff8216820361061857565b805182101561287b5760209160051b010190565b156129b157565b60405162461bcd60e51b815260206004820152600b60248201526a125b9d985b1a590818da5960aa1b6044820152606490fd5b60058110156128c157806129f55750565b60018103612a425760405162461bcd60e51b815260206004820152601860248201527f45434453413a20696e76616c6964207369676e617475726500000000000000006044820152606490fd5b60028103612a8f5760405162461bcd60e51b815260206004820152601f60248201527f45434453413a20696e76616c6964207369676e6174757265206c656e677468006044820152606490fd5b600314612a9857565b60405162461bcd60e51b815260206004820152602260248201527f45434453413a20696e76616c6964207369676e6174757265202773272076616c604482015261756560f01b6064820152608490fd5b906041815114600014612b1657612b12916020820151906060604084015193015160001a90612b20565b9091565b5050600090600290565b9291907f7fffffffffffffffffffffffffffffff5d576e7357a4501ddfe92f46681b20a08311612b965791608094939160ff602094604051948552168484015260408301526060820152600093849182805260015afa15611f735781516001600160a01b03811615612b90579190565b50600190565b50505050600090600390565b3d15612bcd573d90612bb3826124fb565b91612bc160405193846124da565b82523d6000602084013e565b606090565b916000928392612c2960018060a01b03612c1b81875416956040519485936020850197631d42fcb560e31b895216602485015260448401526060606484015260848301906126b1565b03601f1981018352826124da565b519134905af1612c37612ba2565b9015612c5157602081805181010312610618576020015190565b60405162461bcd60e51b815260206004820152600e60248201526d135a5b9d1a5b99c819985a5b195960921b6044820152606490fd5b6001600160a01b0391821680612cea57506000809381938293165af1612cab612ba2565b5015612cb357565b60405162461bcd60e51b815260206004820152600f60248201526e151c985b9cd9995c8819985a5b1959608a1b6044820152606490fd5b9290916040519263a9059cbb60e01b84521660048301526024820152602081604481600080965af1801561052957612d20575050565b6020813d8211612d4c575b81612d38602093836124da565b810103126105255751801515036101b05750565b3d9150612d2b56fea2646970667358221220db1546b7ff6720c86a6720dd513ca0cd4d10b099d593a4b6ec0a73aa2670b42964736f6c6343000811003360803461008d57601f6105e638819003918201601f19168301916001600160401b0383118484101761009257808492604094855283398101031261008d57610052602061004b836100a8565b92016100a8565b600080546001600160a01b039384166001600160a01b0319918216179091556001805492909316911617905560405161052990816100bd8239f35b600080fd5b634e487b7160e01b600052604160045260246000fd5b51906001600160a01b038216820361008d5756fe60406080815260048036101561001f575b5050361561001d57600080fd5b005b600091823560e01c908163038a24bc146100ba575063817b17f0036100105760031960c0368201126100b257813567ffffffffffffffff928382116100b657366023830112156100b6578101358381116100b657369101602401116100b2576024359182116100b25761026091360301126100af57600260843510156100af576100ac618001331461042b565b80f35b80fd5b8280fd5b8480fd5b905060609160031983813601126100b65760443567ffffffffffffffff918282116104275761026082850191833603011261042757618001906100fe82331461042b565b6102248301908561010f8383610483565b9050106103be579061012091610483565b85116103ba57356001600160e01b031916638c5a344560e01b036103775760a4820135606483013581810293918115918504141715610364578754865163288c314960e21b81526001600160a01b0360249384013581168883015260209695949391928792849290918391165afa90811561035a578991610320575b50156102cb578780809381935af1903d156102c5573d9081116102b2578451906101cf601f8201601f19168501836104bb565b815286833d92013e5b1561023057505091825192839162e2892f60e21b83526020828185015284518093850152815b83811061021b575050828201840152601f01601f19168101030190f35b608081015187820187015286945081016101fe565b60a492519162461bcd60e51b8352820152605360248201527f4661696c656420746f207472616e736665722074782066656520746f2074686560448201527f20626f6f746c6f616465722e205061796d61737465722062616c616e6365206d60648201527234b3b43a103737ba1031329032b737bab3b41760691b6084820152fd5b634e487b7160e01b875260418452602487fd5b506101d8565b5050925162461bcd60e51b815291820152602860248201527f4f6e6c792068697665206d656d626572732063616e207573652074686973207060448201526730bcb6b0b9ba32b960c11b606482015260849150fd5b90508481813d8311610353575b61033781836104bb565b8101031261034f5751801515810361034f573861019c565b8880fd5b503d61032d565b87513d8b823e3d90fd5b634e487b7160e01b885260118552602488fd5b845162461bcd60e51b8152602081860152601a60248201527f556e737570706f72746564207061796d617374657220666c6f770000000000006044820152606490fd5b8780fd5b865162461bcd60e51b8152602081880152603a60248201527f546865207374616e64617264207061796d617374657220696e707574206d757360448201527f74206265206174206c656173742034206279746573206c6f6e670000000000006064820152608490fd5b8680fd5b1561043257565b60405162461bcd60e51b8152602060048201526024808201527f4f6e6c7920626f6f746c6f616465722063616e2063616c6c2074686973206d656044820152631d1a1bd960e21b6064820152608490fd5b903590601e19813603018212156104b6570180359067ffffffffffffffff82116104b6576020019181360383136104b657565b600080fd5b90601f8019910116810190811067ffffffffffffffff8211176104dd57604052565b634e487b7160e01b600052604160045260246000fdfea2646970667358221220a1454a1fd72d1a5f9c6dd46ec1cb56e7e12be28bcb775c318ee17e06020cc36264736f6c63430008110033a2646970667358221220032d2f33dc36ba11fcb7ebc165b2542cd478d3f479798c1bb412033c8b31d58e64736f6c63430008110033",
  "linkReferences": {},
  "deployedLinkReferences": {}
}