{
  "_format": "hh-sol-artifact-1",
  "contractName": "Hive",
  "sourceName": "contracts/Hive.sol",
  "abi": [
    {
      "inputs": [
        {
          "internalType": "address",
          "name": "_owner",
          "type": "address"
        },
        {
          "internalType": "uint16",
          "name": "_honeyFee",
          "type": "uint16"
        },
        {
          "internalType": "address",
          "name": "_talentLayerIdAddress",
          "type": "address"
        },
        {
          "internalType": "address",
          "name": "_talentLayerServiceAddress",
          "type": "address"
        },
        {
          "internalType": "address",
          "name": "_talentLayerEscrowAddress",
          "type": "address"
        }
      ],
      "stateMutability": "nonpayable",
      "type": "constructor"
    },
    {
      "anonymous": false,
      "inputs": [
        {
          "indexed": false,
          "internalType": "uint256",
          "name": "hiveId",
          "type": "uint256"
        },
        {
          "indexed": false,
          "internalType": "string",
          "name": "dataUri",
          "type": "string"
        }
      ],
      "name": "DataUriUpdated",
      "type": "event"
    },
    {
      "anonymous": false,
      "inputs": [
        {
          "indexed": false,
          "internalType": "uint256",
          "name": "hiveId",
          "type": "uint256"
        },
        {
          "indexed": true,
          "internalType": "uint256",
          "name": "proposalRequestId",
          "type": "uint256"
        },
        {
          "indexed": false,
          "internalType": "uint256",
          "name": "amount",
          "type": "uint256"
        }
      ],
      "name": "FundsShared",
      "type": "event"
    },
    {
      "anonymous": false,
      "inputs": [
        {
          "indexed": false,
          "internalType": "uint256",
          "name": "hiveId",
          "type": "uint256"
        },
        {
          "indexed": false,
          "internalType": "uint256",
          "name": "userId",
          "type": "uint256"
        }
      ],
      "name": "HoneyFeesClaimed",
      "type": "event"
    },
    {
      "anonymous": false,
      "inputs": [
        {
          "indexed": false,
          "internalType": "uint256",
          "name": "hiveId",
          "type": "uint256"
        },
        {
          "indexed": false,
          "internalType": "uint256",
          "name": "userId",
          "type": "uint256"
        }
      ],
      "name": "MemberJoined",
      "type": "event"
    },
    {
      "anonymous": false,
      "inputs": [
        {
          "indexed": false,
          "internalType": "uint256",
          "name": "hiveId",
          "type": "uint256"
        },
        {
          "indexed": true,
          "internalType": "uint256",
          "name": "id",
          "type": "uint256"
        },
        {
          "indexed": false,
          "internalType": "uint256",
          "name": "ownerId",
          "type": "uint256"
        },
        {
          "indexed": false,
          "internalType": "uint256[]",
          "name": "members",
          "type": "uint256[]"
        },
        {
          "indexed": false,
          "internalType": "uint16[]",
          "name": "shares",
          "type": "uint16[]"
        },
        {
          "indexed": false,
          "internalType": "uint256",
          "name": "serviceId",
          "type": "uint256"
        },
        {
          "indexed": false,
          "internalType": "address",
          "name": "rateToken",
          "type": "address"
        },
        {
          "indexed": false,
          "internalType": "uint256",
          "name": "rateAmount",
          "type": "uint256"
        },
        {
          "indexed": false,
          "internalType": "uint256",
          "name": "platformId",
          "type": "uint256"
        },
        {
          "indexed": false,
          "internalType": "string",
          "name": "dataUri",
          "type": "string"
        },
        {
          "indexed": false,
          "internalType": "uint256",
          "name": "expirationDate",
          "type": "uint256"
        }
      ],
      "name": "ProposalRequestCreated",
      "type": "event"
    },
    {
      "anonymous": false,
      "inputs": [
        {
          "indexed": false,
          "internalType": "uint256",
          "name": "hiveId",
          "type": "uint256"
        },
        {
          "indexed": true,
          "internalType": "uint256",
          "name": "proposalRequestId",
          "type": "uint256"
        },
        {
          "indexed": false,
          "internalType": "uint256",
          "name": "executor",
          "type": "uint256"
        }
      ],
      "name": "ProposalRequestExecuted",
      "type": "event"
    },
    {
      "inputs": [
        {
          "internalType": "address",
          "name": "_address",
          "type": "address"
        },
        {
          "internalType": "uint256",
          "name": "_platformId",
          "type": "uint256"
        },
        {
          "internalType": "string",
          "name": "_handle",
          "type": "string"
        }
      ],
      "name": "_mintTlId",
      "outputs": [
        {
          "internalType": "uint256",
          "name": "",
          "type": "uint256"
        }
      ],
      "stateMutability": "payable",
      "type": "function"
    },
    {
      "inputs": [
        {
          "internalType": "address",
          "name": "_tokenAddress",
          "type": "address"
        }
      ],
      "name": "claimHoneyFees",
      "outputs": [],
      "stateMutability": "nonpayable",
      "type": "function"
    },
    {
      "inputs": [
        {
          "internalType": "uint256",
          "name": "_serviceId",
          "type": "uint256"
        },
        {
          "internalType": "address",
          "name": "_rateToken",
          "type": "address"
        },
        {
          "internalType": "uint256",
          "name": "_rateAmount",
          "type": "uint256"
        },
        {
          "internalType": "uint256",
          "name": "_platformId",
          "type": "uint256"
        },
        {
          "internalType": "string",
          "name": "_dataUri",
          "type": "string"
        },
        {
          "internalType": "uint256",
          "name": "_expirationDate",
          "type": "uint256"
        },
        {
          "internalType": "uint256[]",
          "name": "_members",
          "type": "uint256[]"
        },
        {
          "internalType": "uint16[]",
          "name": "_shares",
          "type": "uint16[]"
        }
      ],
      "name": "createProposalRequest",
      "outputs": [],
      "stateMutability": "nonpayable",
      "type": "function"
    },
    {
      "inputs": [],
      "name": "dataUri",
      "outputs": [
        {
          "internalType": "string",
          "name": "",
          "type": "string"
        }
      ],
      "stateMutability": "view",
      "type": "function"
    },
    {
      "inputs": [
        {
          "internalType": "uint256",
          "name": "_proposalRequestId",
          "type": "uint256"
        }
      ],
      "name": "executeProposalRequest",
      "outputs": [],
      "stateMutability": "nonpayable",
      "type": "function"
    },
    {
      "inputs": [],
      "name": "hiveId",
      "outputs": [
        {
          "internalType": "uint256",
          "name": "",
          "type": "uint256"
        }
      ],
      "stateMutability": "view",
      "type": "function"
    },
    {
      "inputs": [],
      "name": "honeyFee",
      "outputs": [
        {
          "internalType": "uint16",
          "name": "",
          "type": "uint16"
        }
      ],
      "stateMutability": "view",
      "type": "function"
    },
    {
      "inputs": [
        {
          "internalType": "address",
          "name": "_address",
          "type": "address"
        }
      ],
      "name": "isMember",
      "outputs": [
        {
          "internalType": "bool",
          "name": "",
          "type": "bool"
        }
      ],
      "stateMutability": "view",
      "type": "function"
    },
    {
      "inputs": [
        {
          "internalType": "bytes",
          "name": "_ownerSignature",
          "type": "bytes"
        },
        {
          "internalType": "uint256",
          "name": "_platformId",
          "type": "uint256"
        },
        {
          "internalType": "string",
          "name": "_handle",
          "type": "string"
        }
      ],
      "name": "join",
      "outputs": [],
      "stateMutability": "payable",
      "type": "function"
    },
    {
      "inputs": [
        {
          "internalType": "uint256",
          "name": "",
          "type": "uint256"
        }
      ],
      "name": "members",
      "outputs": [
        {
          "internalType": "bool",
          "name": "",
          "type": "bool"
        }
      ],
      "stateMutability": "view",
      "type": "function"
    },
    {
      "inputs": [],
      "name": "owner",
      "outputs": [
        {
          "internalType": "address",
          "name": "",
          "type": "address"
        }
      ],
      "stateMutability": "view",
      "type": "function"
    },
    {
      "inputs": [
        {
          "internalType": "uint256",
          "name": "",
          "type": "uint256"
        }
      ],
      "name": "proposalRequests",
      "outputs": [
        {
          "internalType": "uint256",
          "name": "ownerId",
          "type": "uint256"
        },
        {
          "internalType": "uint256",
          "name": "serviceId",
          "type": "uint256"
        },
        {
          "internalType": "address",
          "name": "rateToken",
          "type": "address"
        },
        {
          "internalType": "uint256",
          "name": "rateAmount",
          "type": "uint256"
        },
        {
          "internalType": "uint256",
          "name": "platformId",
          "type": "uint256"
        },
        {
          "internalType": "string",
          "name": "dataUri",
          "type": "string"
        },
        {
          "internalType": "uint256",
          "name": "expirationDate",
          "type": "uint256"
        },
        {
          "internalType": "enum Hive.ProposalRequestStatus",
          "name": "status",
          "type": "uint8"
        },
        {
          "internalType": "uint256",
          "name": "sharedAmount",
          "type": "uint256"
        }
      ],
      "stateMutability": "view",
      "type": "function"
    },
    {
      "inputs": [
        {
          "internalType": "uint256",
          "name": "_proposalRequestId",
          "type": "uint256"
        }
      ],
      "name": "shareFunds",
      "outputs": [],
      "stateMutability": "payable",
      "type": "function"
    },
    {
      "inputs": [
        {
          "internalType": "string",
          "name": "_dataUri",
          "type": "string"
        }
      ],
      "name": "updateDataUri",
      "outputs": [],
      "stateMutability": "nonpayable",
      "type": "function"
    },
    {
      "stateMutability": "payable",
      "type": "receive"
    }
  ],
  "bytecode": "0x60806040523480156200001157600080fd5b5060405162002f4f38038062002f4f833981016040819052620000349162000174565b600080546001600160a01b03199081166001600160a01b03868116919091179092556001805482168584161790556002805460038054909316898516179092559183166001600160b01b031990911617600160a01b61ffff871602179055620000aa60066200014e602090811b6200178e17901c565b60008054604051631847c06b60e01b81526001600160a01b0388811660048301526001936005939092911690631847c06b90602401602060405180830381865afa158015620000fd573d6000803e3d6000fd5b505050506040513d601f19601f82011682018060405250810190620001239190620001ec565b81526020810191909152604001600020805460ff191691151591909117905550620002069350505050565b80546001019055565b80516001600160a01b03811681146200016f57600080fd5b919050565b600080600080600060a086880312156200018d57600080fd5b620001988662000157565b9450602086015161ffff81168114620001b057600080fd5b9350620001c06040870162000157565b9250620001d06060870162000157565b9150620001e06080870162000157565b90509295509295909350565b600060208284031215620001ff57600080fd5b5051919050565b612d3980620002166000396000f3fe6080604052600436106100e15760003560e01c80638a9b29eb1161007f578063a230c52411610059578063a230c5241461024a578063a5e9a5e31461026a578063d867cb7f1461028a578063eb881686146102bf57600080fd5b80638a9b29eb146101d05780638da5cb5b146101f25780639c0f38691461022a57600080fd5b806338fcc692116100bb57806338fcc692146101425780633f173526146101685780635daf08ca1461017d5780637e213499146101bd57600080fd5b80631e26ec39146100ed578063284c65621461010f578063287a591e1461012f57600080fd5b366100e857005b600080fd5b3480156100f957600080fd5b5061010d610108366004611ef8565b6102f4565b005b34801561011b57600080fd5b5061010d61012a366004611f59565b6103b1565b61010d61013d366004611f76565b610518565b610155610150366004611f8f565b6109ff565b6040519081526020015b60405180910390f35b34801561017457600080fd5b50610155610b04565b34801561018957600080fd5b506101ad610198366004611f76565b60056020526000908152604090205460ff1681565b604051901515815260200161015f565b61010d6101cb366004612028565b610b76565b3480156101dc57600080fd5b506101e5610c65565b60405161015f91906120ea565b3480156101fe57600080fd5b50600354610212906001600160a01b031681565b6040516001600160a01b03909116815260200161015f565b34801561023657600080fd5b5061010d610245366004612141565b610cf3565b34801561025657600080fd5b506101ad610265366004611f59565b611196565b34801561027657600080fd5b5061010d610285366004611f76565b611223565b34801561029657600080fd5b506002546102ac90600160a01b900461ffff1681565b60405161ffff909116815260200161015f565b3480156102cb57600080fd5b506102df6102da366004611f76565b6116aa565b60405161015f9998979695949392919061222e565b6102fd33611196565b6103225760405162461bcd60e51b8152600401610319906122a7565b60405180910390fd5b8051602e146103615760405162461bcd60e51b815260206004820152600b60248201526a125b9d985b1a590818da5960aa1b6044820152606401610319565b600461036d828261235f565b507f1e72c479b6f2a89396870f00df9d05ab7646ee8e49ecd1b03ef2bc230b8da001610397610b04565b826040516103a692919061241e565b60405180910390a150565b6103ba33611196565b6103d65760405162461bcd60e51b8152600401610319906122a7565b6001600160a01b0381166103f4576103ef338247611797565b61046e565b6040516370a0823160e01b81523060048201526000906001600160a01b038316906370a0823190602401602060405180830381865afa15801561043b573d6000803e3d6000fd5b505050506040513d601f19601f8201168201806040525081019061045f9190612437565b905061046c338383611797565b505b7f8bb13773f46db3e674bcaa18a92af3253680c613eb6d7eb12688d45dbb50ead5610497610b04565b600054604051631847c06b60e01b81523360048201526001600160a01b0390911690631847c06b90602401602060405180830381865afa1580156104df573d6000803e3d6000fd5b505050506040513d601f19601f820116820180604052508101906105039190612437565b604080519283526020830191909152016103a6565b600081815260076020908152604080832081516101608101835281548152600182018054845181870281018701909552808552919492938584019390929083018282801561058557602002820191906000526020600020905b815481526020019060010190808311610571575b505050505081526020016002820180548060200260200160405190810160405280929190818152602001828054801561060557602002820191906000526020600020906000905b82829054906101000a900461ffff1661ffff16815260200190600201906020826001010492830192600103820291508084116105cc5790505b50505091835250506003820154602082015260048201546001600160a01b03166040820152600582015460608201526006820154608082015260078201805460a090920191610653906122d7565b80601f016020809104026020016040519081016040528092919081815260200182805461067f906122d7565b80156106cc5780601f106106a1576101008083540402835291602001916106cc565b820191906000526020600020905b8154815290600101906020018083116106af57829003601f168201915b505050918352505060088201546020820152600982015460409091019060ff1660018111156106fd576106fd612218565b600181111561070e5761070e612218565b8152600a9190910154602090910152600154606082015160405163ef0e239b60e01b81529293506000926001600160a01b039092169163ef0e239b9161075a9160040190815260200190565b600060405180830381865afa158015610777573d6000803e3d6000fd5b505050506040513d6000823e601f3d908101601f1916820160405261079f9190810190612498565b6002546080820151604051630fa683d360e01b81529293506000926001600160a01b0390921691630fa683d3916107dc9160040190815260200190565b600060405180830381865afa1580156107f9573d6000803e3d6000fd5b505050506040513d6000823e601f3d908101601f19168201604052610821919081019061259f565b905060008361014001518260a0015161083a9190612701565b9050600081116108805760405162461bcd60e51b81526020600482015260116024820152704e6f2066756e647320746f20736861726560781b6044820152606401610319565b60005b84602001515181101561098f57600061271061ffff16866040015183815181106108af576108af612714565b602002602001015161ffff16846108c6919061272a565b6108d09190612741565b600080546020890151805193945091926001600160a01b0390911691636352211e918690811061090257610902612714565b60200260200101516040518263ffffffff1660e01b815260040161092891815260200190565b602060405180830381865afa158015610945573d6000803e3d6000fd5b505050506040513d601f19601f820116820180604052508101906109699190612763565b905061097a81866060015184611797565b5050808061098790612780565b915050610883565b506000858152600760205260408120600a0180548392906109b1908490612799565b909155508590507f3883f7043acc90474d660677ad79e3559193f9b007a3396886c0d1ae9532dd626109e1610b04565b60408051918252602082018590520160405180910390a25050505050565b60008054604051829182916001600160a01b03909116903490610a2a908990899089906024016127ac565b60408051601f198184030181529181526020820180516001600160e01b0316631d42fcb560e31b17905251610a5f91906127dc565b60006040518083038185875af1925050503d8060008114610a9c576040519150601f19603f3d011682016040523d82523d6000602084013e610aa1565b606091505b509150915081610ae45760405162461bcd60e51b815260206004820152600e60248201526d135a5b9d1a5b99c819985a5b195960921b6044820152606401610319565b80806020019051810190610af89190612437565b925050505b9392505050565b60008054604051631847c06b60e01b81523060048201526001600160a01b0390911690631847c06b90602401602060405180830381865afa158015610b4d573d6000803e3d6000fd5b505050506040513d601f19601f82011682018060405250810190610b719190612437565b905090565b610b8084846118bb565b60008054604051631847c06b60e01b81523360048201526001600160a01b0390911690631847c06b90602401602060405180830381865afa158015610bc9573d6000803e3d6000fd5b505050506040513d601f19601f82011682018060405250810190610bed9190612437565b905080600003610c0557610c023384846109ff565b90505b6000818152600560205260409020805460ff191660011790557f09f489e6eb0f594d1ae6af1e7bf66f628b75c026bf5952b2c5d725d0c8e9d752610c47610b04565b60408051918252602082018490520160405180910390a15050505050565b60048054610c72906122d7565b80601f0160208091040260200160405190810160405280929190818152602001828054610c9e906122d7565b8015610ceb5780601f10610cc057610100808354040283529160200191610ceb565b820191906000526020600020905b815481529060010190602001808311610cce57829003601f168201915b505050505081565b610cfc33611196565b610d185760405162461bcd60e51b8152600401610319906122a7565b82610d655760405162461bcd60e51b815260206004820152601e60248201527f4d656d626572732073686f756c64206265206174206c65617374206f6e6500006044820152606401610319565b828114610dbf5760405162461bcd60e51b815260206004820152602260248201527f4d656d6265727320616e6420736861726573206c656e677468206d69736d61746044820152610c6d60f31b6064820152608401610319565b60005b83811015610e665760056000868684818110610de057610de0612714565b602090810292909201358352508101919091526040016000205460ff16610e545760405162461bcd60e51b815260206004820152602260248201527f4d656d626572206973206e6f742061206d656d626572206f6620746865206869604482015261766560f01b6064820152608401610319565b80610e5e81612780565b915050610dc2565b50600254600160a01b900461ffff1660005b82811015610ec957838382818110610e9257610e92612714565b9050602002016020810190610ea791906127f8565b610eb59061ffff1683612799565b915080610ec181612780565b915050610e78565b506127108114610f145760405162461bcd60e51b81526020600482015260166024820152755368617265732073756d206973206e6f74203130302560501b6044820152606401610319565b6000610f1f60065490565b60408051610160810191829052600054631847c06b60e01b9092523361016482015291925081906001600160a01b0316631847c06b6101848301602060405180830381865afa158015610f76573d6000803e3d6000fd5b505050506040513d601f19601f82011682018060405250810190610f9a9190612437565b81526020018787808060200260200160405190810160405280939291908181526020018383602002808284376000920191909152505050908252506040805160208781028281018201909352878252928301929091889188918291850190849080828437600081840152601f19601f8201169050808301925050505050505081526020018e81526020018d6001600160a01b031681526020018c81526020018b81526020018a8a8080601f0160208091040260200160405190810160405280939291908181526020018383808284376000920182905250938552505050602082018a905260409091019081526000602091820181905283815260078252604090208251815582820151805191926110b992600185019290910190611cea565b50604082015180516110d5916002840191602090910190611d35565b506060820151600382015560808201516004820180546001600160a01b0319166001600160a01b0390921691909117905560a0820151600582015560c0820151600682015560e0820151600782019061112e908261235f565b50610100820151600882015561012082015160098201805460ff19166001838181111561115d5761115d612218565b021790555061014082015181600a015590505061117e600680546001019055565b611187816119e0565b50505050505050505050505050565b60008054604051631847c06b60e01b81526001600160a01b0384811660048301526005928492911690631847c06b90602401602060405180830381865afa1580156111e5573d6000803e3d6000fd5b505050506040513d601f19601f820116820180604052508101906112099190612437565b815260208101919091526040016000205460ff1692915050565b61122c33611196565b6112485760405162461bcd60e51b8152600401610319906122a7565b60008181526007602090815260408083208151610160810183528154815260018201805484518187028101870190955280855291949293858401939092908301828280156112b557602002820191906000526020600020905b8154815260200190600101908083116112a1575b505050505081526020016002820180548060200260200160405190810160405280929190818152602001828054801561133557602002820191906000526020600020906000905b82829054906101000a900461ffff1661ffff16815260200190600201906020826001010492830192600103820291508084116112fc5790505b50505091835250506003820154602082015260048201546001600160a01b03166040820152600582015460608201526006820154608082015260078201805460a090920191611383906122d7565b80601f01602080910402602001604051908101604052809291908181526020018280546113af906122d7565b80156113fc5780601f106113d1576101008083540402835291602001916113fc565b820191906000526020600020905b8154815290600101906020018083116113df57829003601f168201915b505050918352505060088201546020820152600982015460409091019060ff16600181111561142d5761142d612218565b600181111561143e5761143e612218565b8152600a919091015460209091015260008054604051631847c06b60e01b815233600482015292935090916001600160a01b0390911690631847c06b90602401602060405180830381865afa15801561149b573d6000803e3d6000fd5b505050506040513d601f19601f820116820180604052508101906114bf9190612437565b825190915081036115285760405162461bcd60e51b815260206004820152602d60248201527f4f776e65722063616e6e6f74206578656375746520697473206f776e2070726f60448201526c1c1bdcd85b081c995c5d595cdd609a1b6064820152608401610319565b60008181526005602052604090205460ff166115565760405162461bcd60e51b8152600401610319906122a7565b6000826101200151600181111561156f5761156f612218565b146115bc5760405162461bcd60e51b815260206004820152601f60248201527f50726f706f73616c2072657175657374206973206e6f742070656e64696e67006044820152606401610319565b6001546001600160a01b03166313ca98db6115d5610b04565b846060015185608001518660a001518760c001518860e001518961010001516040518863ffffffff1660e01b81526004016116169796959493929190612815565b600060405180830381600087803b15801561163057600080fd5b505af1158015611644573d6000803e3d6000fd5b5050506000848152600760205260409020600901805460ff1916600117905550827ff3913536f47ce5715fcf97e1e92ab82bc1be4bb4c5f293e991dc612f219d8ae661168e610b04565b60408051918252602082018590520160405180910390a2505050565b6007602081905260009182526040909120805460038201546004830154600584015460068501549585018054949693956001600160a01b0390931694919392916116f3906122d7565b80601f016020809104026020016040519081016040528092919081815260200182805461171f906122d7565b801561176c5780601f106117415761010080835404028352916020019161176c565b820191906000526020600020905b81548152906001019060200180831161174f57829003601f168201915b5050505060088301546009840154600a909401549293909260ff909116915089565b80546001019055565b6001600160a01b038216600003611843576000836001600160a01b03168260405160006040518083038185875af1925050503d80600081146117f5576040519150601f19603f3d011682016040523d82523d6000602084013e6117fa565b606091505b505090508061183d5760405162461bcd60e51b815260206004820152600f60248201526e151c985b9cd9995c8819985a5b1959608a1b6044820152606401610319565b50505050565b60405163a9059cbb60e01b81526001600160a01b0384811660048301526024820183905283169063a9059cbb906044016020604051808303816000875af1158015611892573d6000803e3d6000fd5b505050506040513d601f19601f8201168201806040525081019061183d9190612873565b505050565b60408051633537b4b760e11b6020808301919091523060601b6bffffffffffffffffffffffff19166024830152825160188184030181526038830184528051908201207f19457468657265756d205369676e6564204d6573736167653a0a33320000000060588401526074808401829052845180850390910181526094909301909352815191012060006119858286868080601f016020809104026020016040519081016040528093929190818152602001838380828437600092019190915250611a6e92505050565b6003549091506001600160a01b038083169116146119d95760405162461bcd60e51b8152602060048201526011602482015270496e76616c6964207369676e617475726560781b6044820152606401610319565b5050505050565b6000818152600760205260409020817fe8497acd73f68d3d9873122b907db74a5acb794132385c6af763c7fd10ebf5a9611a18610b04565b835460038501546004860154600587015460068801546008890154604051611a6297969560018c019560028d019591946001600160a01b03909116939192909160078e0191612c4d565b60405180910390a25050565b6000806000611a7d8585611a94565b91509150611a8a81611ad9565b5090505b92915050565b6000808251604103611aca5760208301516040840151606085015160001a611abe87828585611c26565b94509450505050611ad2565b506000905060025b9250929050565b6000816004811115611aed57611aed612218565b03611af55750565b6001816004811115611b0957611b09612218565b03611b565760405162461bcd60e51b815260206004820152601860248201527f45434453413a20696e76616c6964207369676e617475726500000000000000006044820152606401610319565b6002816004811115611b6a57611b6a612218565b03611bb75760405162461bcd60e51b815260206004820152601f60248201527f45434453413a20696e76616c6964207369676e6174757265206c656e677468006044820152606401610319565b6003816004811115611bcb57611bcb612218565b03611c235760405162461bcd60e51b815260206004820152602260248201527f45434453413a20696e76616c6964207369676e6174757265202773272076616c604482015261756560f01b6064820152608401610319565b50565b6000807f7fffffffffffffffffffffffffffffff5d576e7357a4501ddfe92f46681b20a0831115611c5d5750600090506003611ce1565b6040805160008082526020820180845289905260ff881692820192909252606081018690526080810185905260019060a0016020604051602081039080840390855afa158015611cb1573d6000803e3d6000fd5b5050604051601f1901519150506001600160a01b038116611cda57600060019250925050611ce1565b9150600090505b94509492505050565b828054828255906000526020600020908101928215611d25579160200282015b82811115611d25578251825591602001919060010190611d0a565b50611d31929150611dd5565b5090565b82805482825590600052602060002090600f01601090048101928215611d255791602002820160005b83821115611d9e57835183826101000a81548161ffff021916908361ffff1602179055509260200192600201602081600101049283019260010302611d5e565b8015611dcc5782816101000a81549061ffff0219169055600201602081600101049283019260010302611d9e565b5050611d319291505b5b80821115611d315760008155600101611dd6565b634e487b7160e01b600052604160045260246000fd5b60405160c081016001600160401b0381118282101715611e2257611e22611dea565b60405290565b60405161022081016001600160401b0381118282101715611e2257611e22611dea565b604051601f8201601f191681016001600160401b0381118282101715611e7357611e73611dea565b604052919050565b60006001600160401b03821115611e9457611e94611dea565b50601f01601f191660200190565b600082601f830112611eb357600080fd5b8135611ec6611ec182611e7b565b611e4b565b818152846020838601011115611edb57600080fd5b816020850160208301376000918101602001919091529392505050565b600060208284031215611f0a57600080fd5b81356001600160401b03811115611f2057600080fd5b611f2c84828501611ea2565b949350505050565b6001600160a01b0381168114611c2357600080fd5b8035611f5481611f34565b919050565b600060208284031215611f6b57600080fd5b8135610afd81611f34565b600060208284031215611f8857600080fd5b5035919050565b600080600060608486031215611fa457600080fd5b8335611faf81611f34565b92506020840135915060408401356001600160401b03811115611fd157600080fd5b611fdd86828701611ea2565b9150509250925092565b60008083601f840112611ff957600080fd5b5081356001600160401b0381111561201057600080fd5b602083019150836020828501011115611ad257600080fd5b6000806000806060858703121561203e57600080fd5b84356001600160401b038082111561205557600080fd5b61206188838901611fe7565b909650945060208701359350604087013591508082111561208157600080fd5b5061208e87828801611ea2565b91505092959194509250565b60005b838110156120b557818101518382015260200161209d565b50506000910152565b600081518084526120d681602086016020860161209a565b601f01601f19169290920160200192915050565b602081526000610afd60208301846120be565b60008083601f84011261210f57600080fd5b5081356001600160401b0381111561212657600080fd5b6020830191508360208260051b8501011115611ad257600080fd5b60008060008060008060008060008060006101008c8e03121561216357600080fd5b8b359a5061217360208d01611f49565b995060408c0135985060608c013597506001600160401b038060808e0135111561219c57600080fd5b6121ac8e60808f01358f01611fe7565b909850965060a08d0135955060c08d01358110156121c957600080fd5b6121d98e60c08f01358f016120fd565b909550935060e08d01358110156121ef57600080fd5b506122008d60e08e01358e016120fd565b81935080925050509295989b509295989b9093969950565b634e487b7160e01b600052602160045260246000fd5b60006101208b83528a602084015260018060a01b038a1660408401528860608401528760808401528060a0840152612268818401886120be565b9150508460c08301526002841061228f57634e487b7160e01b600052602160045260246000fd5b60e08201939093526101000152979650505050505050565b60208082526016908201527529b2b73232b91034b9903737ba10309036b2b6b132b960511b604082015260600190565b600181811c908216806122eb57607f821691505b60208210810361230b57634e487b7160e01b600052602260045260246000fd5b50919050565b601f8211156118b657600081815260208120601f850160051c810160208610156123385750805b601f850160051c820191505b8181101561235757828155600101612344565b505050505050565b81516001600160401b0381111561237857612378611dea565b61238c8161238684546122d7565b84612311565b602080601f8311600181146123c157600084156123a95750858301515b600019600386901b1c1916600185901b178555612357565b600085815260208120601f198616915b828110156123f0578886015182559484019460019091019084016123d1565b508582101561240e5787850151600019600388901b60f8161c191681555b5050505050600190811b01905550565b828152604060208201526000611f2c60408301846120be565b60006020828403121561244957600080fd5b5051919050565b60058110611c2357600080fd5b8051611f5481612450565b6000612476611ec184611e7b565b905082815283838301111561248a57600080fd5b610afd83602083018461209a565b6000602082840312156124aa57600080fd5b81516001600160401b03808211156124c157600080fd5b9083019060c082860312156124d557600080fd5b6124dd611e00565b82516124e881612450565b80825250602083015160208201526040830151604082015260608301518281111561251257600080fd5b83019150601f8201861361252557600080fd5b61253486835160208501612468565b60608201526080830151608082015260a083015160a082015280935050505092915050565b8051611f5481611f34565b61ffff81168114611c2357600080fd5b8051611f5481612564565b600082601f83011261259057600080fd5b610afd83835160208501612468565b6000602082840312156125b157600080fd5b81516001600160401b03808211156125c857600080fd5b9083019061022082860312156125dd57600080fd5b6125e5611e28565b825181526125f560208401612559565b602082015261260660408401612559565b604082015261261760608401612559565b60608201526080830151608082015260a083015160a082015260c083015160c082015261264660e08401612574565b60e0820152610100612659818501612574565b9082015261012061266b848201612574565b908201526101408381015190820152610160808401519082015261018080840151908201526101a080840151908201526101c06126a981850161245d565b908201526101e083810151838111156126c157600080fd5b6126cd8882870161257f565b91830191909152506102009283015192810192909252509392505050565b634e487b7160e01b600052601160045260246000fd5b81810381811115611a8e57611a8e6126eb565b634e487b7160e01b600052603260045260246000fd5b8082028115828204841417611a8e57611a8e6126eb565b60008261275e57634e487b7160e01b600052601260045260246000fd5b500490565b60006020828403121561277557600080fd5b8151610afd81611f34565b600060018201612792576127926126eb565b5060010190565b80820180821115611a8e57611a8e6126eb565b60018060a01b03841681528260208201526060604082015260006127d360608301846120be565b95945050505050565b600082516127ee81846020870161209a565b9190910192915050565b60006020828403121561280a57600080fd5b8135610afd81612564565b600061010089835288602084015260018060a01b03881660408401528660608401528560808401528060a084015261284f818401866120be565b60c0840194909452505080820360e090910152600081526020019695505050505050565b60006020828403121561288557600080fd5b81518015158114610afd57600080fd5b805480835260008281526020808220940193909190825b82600f820110156129fd57815461ffff808216885260206128d7818a01838560101c1661ffff169052565b60406128ec818b018486851c1661ffff169052565b60609150612904828b01848660301c1661ffff169052565b6080612919818c018587851c1661ffff169052565b60a09150612931828c01858760501c1661ffff169052565b60c0612946818d018688871c1661ffff169052565b60e0935061295e848d01868860701c1661ffff169052565b61ffff86831c8616166101008d01526129836101208d01868860901c1661ffff169052565b61ffff86841c8616166101408d01526129a86101608d01868860b01c1661ffff169052565b61ffff86821c8616166101808d01525050506129d06101a08a01838560d01c1661ffff169052565b82901c1661ffff166101c088015260f01c6101e087015261020090950194600191909101906010016128ac565b90549082811015612a195761ffff821686526020909501946001015b82811015612a365761ffff601083901c1686526020909501946001015b82811015612a5457602082901c61ffff168652602095909501946001015b82811015612a715761ffff603083901c1686526020909501946001015b82811015612a8e5761ffff604083901c1686526020909501946001015b82811015612aab5761ffff605083901c1686526020909501946001015b82811015612ac85761ffff606083901c1686526020909501946001015b82811015612ae55761ffff607083901c1686526020909501946001015b82811015612b025761ffff608083901c1686526020909501946001015b82811015612b1f5761ffff609083901c1686526020909501946001015b82811015612b3c5761ffff60a083901c1686526020909501946001015b82811015612b595761ffff60b083901c1686526020909501946001015b82811015612b765761ffff60c083901c1686526020909501946001015b82811015612b935761ffff60d083901c1686526020909501946001015b82811015612bb05761ffff60e083901c1686526020909501946001015b82811015612bc65760f082901c86526020860195505b5093949350505050565b60008154612bdd816122d7565b808552602060018381168015612bfa5760018114612c1457612c42565b60ff1985168884015283151560051b880183019550612c42565b866000528260002060005b85811015612c3a5781548a8201860152908301908401612c1f565b890184019650505b505050505092915050565b8a815260208082018b9052610140604083018190528a5490830181905260008b81528281209092610160850192845b81811015612c9857835485529382019360019384019301612c7c565b505050508281036060840152612cae818b612895565b9050886080840152612ccb60a08401896001600160a01b03169052565b8660c08401528560e0840152828103610100840152612cea8186612bd0565b915050826101208301529b9a505050505050505050505056fea2646970667358221220348db39d040ac70ac7ef7562c6b99ac59d6011f202f1582f79f0b0bc01e767d764736f6c63430008110033",
  "linkReferences": {},
  "deployedLinkReferences": {}
}