{
  "_format": "hh-sol-artifact-1",
  "contractName": "Hive",
  "sourceName": "contracts/Hive.sol",
  "abi": [
    {
      "inputs": [
        {
          "internalType": "address",
          "name": "_owner",
          "type": "address"
        },
        {
          "internalType": "uint16",
          "name": "_honeyFee",
          "type": "uint16"
        },
        {
          "internalType": "address",
          "name": "_talentLayerIdAddress",
          "type": "address"
        },
        {
          "internalType": "address",
          "name": "_talentLayerServiceAddress",
          "type": "address"
        },
        {
          "internalType": "address",
          "name": "_talentLayerEscrowAddress",
          "type": "address"
        }
      ],
      "stateMutability": "nonpayable",
      "type": "constructor"
    },
    {
      "anonymous": false,
      "inputs": [
        {
          "indexed": false,
          "internalType": "uint256",
          "name": "hiveId",
          "type": "uint256"
        },
        {
          "indexed": false,
          "internalType": "string",
          "name": "dataUri",
          "type": "string"
        }
      ],
      "name": "DataUriUpdated",
      "type": "event"
    },
    {
      "anonymous": false,
      "inputs": [
        {
          "indexed": false,
          "internalType": "uint256",
          "name": "hiveId",
          "type": "uint256"
        },
        {
          "indexed": true,
          "internalType": "uint256",
          "name": "proposalRequestId",
          "type": "uint256"
        },
        {
          "indexed": false,
          "internalType": "uint256",
          "name": "amount",
          "type": "uint256"
        }
      ],
      "name": "FundsShared",
      "type": "event"
    },
    {
      "anonymous": false,
      "inputs": [
        {
          "indexed": false,
          "internalType": "uint256",
          "name": "hiveId",
          "type": "uint256"
        },
        {
          "indexed": false,
          "internalType": "uint256",
          "name": "userId",
          "type": "uint256"
        }
      ],
      "name": "HoneyFeesClaimed",
      "type": "event"
    },
    {
      "anonymous": false,
      "inputs": [
        {
          "indexed": false,
          "internalType": "uint256",
          "name": "hiveId",
          "type": "uint256"
        },
        {
          "indexed": false,
          "internalType": "uint256",
          "name": "userId",
          "type": "uint256"
        }
      ],
      "name": "MemberJoined",
      "type": "event"
    },
    {
      "anonymous": false,
      "inputs": [
        {
          "indexed": false,
          "internalType": "uint256",
          "name": "hiveId",
          "type": "uint256"
        },
        {
          "indexed": true,
          "internalType": "uint256",
          "name": "id",
          "type": "uint256"
        },
        {
          "indexed": false,
          "internalType": "uint256",
          "name": "ownerId",
          "type": "uint256"
        },
        {
          "indexed": false,
          "internalType": "uint256[]",
          "name": "members",
          "type": "uint256[]"
        },
        {
          "indexed": false,
          "internalType": "uint16[]",
          "name": "shares",
          "type": "uint16[]"
        },
        {
          "indexed": false,
          "internalType": "uint256",
          "name": "serviceId",
          "type": "uint256"
        },
        {
          "indexed": false,
          "internalType": "address",
          "name": "rateToken",
          "type": "address"
        },
        {
          "indexed": false,
          "internalType": "uint256",
          "name": "rateAmount",
          "type": "uint256"
        },
        {
          "indexed": false,
          "internalType": "uint256",
          "name": "platformId",
          "type": "uint256"
        },
        {
          "indexed": false,
          "internalType": "string",
          "name": "dataUri",
          "type": "string"
        },
        {
          "indexed": false,
          "internalType": "uint256",
          "name": "expirationDate",
          "type": "uint256"
        }
      ],
      "name": "ProposalRequestCreated",
      "type": "event"
    },
    {
      "anonymous": false,
      "inputs": [
        {
          "indexed": false,
          "internalType": "uint256",
          "name": "hiveId",
          "type": "uint256"
        },
        {
          "indexed": true,
          "internalType": "uint256",
          "name": "proposalRequestId",
          "type": "uint256"
        },
        {
          "indexed": false,
          "internalType": "uint256",
          "name": "executor",
          "type": "uint256"
        }
      ],
      "name": "ProposalRequestExecuted",
      "type": "event"
    },
    {
      "inputs": [
        {
          "internalType": "address",
          "name": "_address",
          "type": "address"
        },
        {
          "internalType": "uint256",
          "name": "_platformId",
          "type": "uint256"
        },
        {
          "internalType": "string",
          "name": "_handle",
          "type": "string"
        }
      ],
      "name": "_mintTlId",
      "outputs": [
        {
          "internalType": "uint256",
          "name": "",
          "type": "uint256"
        }
      ],
      "stateMutability": "payable",
      "type": "function"
    },
    {
      "inputs": [
        {
          "internalType": "address",
          "name": "_tokenAddress",
          "type": "address"
        }
      ],
      "name": "claimHoneyFees",
      "outputs": [],
      "stateMutability": "nonpayable",
      "type": "function"
    },
    {
      "inputs": [
        {
          "internalType": "uint256",
          "name": "_serviceId",
          "type": "uint256"
        },
        {
          "internalType": "address",
          "name": "_rateToken",
          "type": "address"
        },
        {
          "internalType": "uint256",
          "name": "_rateAmount",
          "type": "uint256"
        },
        {
          "internalType": "uint256",
          "name": "_platformId",
          "type": "uint256"
        },
        {
          "internalType": "string",
          "name": "_dataUri",
          "type": "string"
        },
        {
          "internalType": "uint256",
          "name": "_expirationDate",
          "type": "uint256"
        },
        {
          "internalType": "uint256[]",
          "name": "_members",
          "type": "uint256[]"
        },
        {
          "internalType": "uint16[]",
          "name": "_shares",
          "type": "uint16[]"
        }
      ],
      "name": "createProposalRequest",
      "outputs": [],
      "stateMutability": "nonpayable",
      "type": "function"
    },
    {
      "inputs": [],
      "name": "dataUri",
      "outputs": [
        {
          "internalType": "string",
          "name": "",
          "type": "string"
        }
      ],
      "stateMutability": "view",
      "type": "function"
    },
    {
      "inputs": [
        {
          "internalType": "uint256",
          "name": "_proposalRequestId",
          "type": "uint256"
        }
      ],
      "name": "executeProposalRequest",
      "outputs": [],
      "stateMutability": "nonpayable",
      "type": "function"
    },
    {
      "inputs": [],
      "name": "hiveFactoryAddress",
      "outputs": [
        {
          "internalType": "address",
          "name": "",
          "type": "address"
        }
      ],
      "stateMutability": "view",
      "type": "function"
    },
    {
      "inputs": [],
      "name": "hiveId",
      "outputs": [
        {
          "internalType": "uint256",
          "name": "",
          "type": "uint256"
        }
      ],
      "stateMutability": "view",
      "type": "function"
    },
    {
      "inputs": [],
      "name": "honeyFee",
      "outputs": [
        {
          "internalType": "uint16",
          "name": "",
          "type": "uint16"
        }
      ],
      "stateMutability": "view",
      "type": "function"
    },
    {
      "inputs": [
        {
          "internalType": "address",
          "name": "_address",
          "type": "address"
        }
      ],
      "name": "isMember",
      "outputs": [
        {
          "internalType": "bool",
          "name": "",
          "type": "bool"
        }
      ],
      "stateMutability": "view",
      "type": "function"
    },
    {
      "inputs": [
        {
          "internalType": "bytes",
          "name": "_ownerSignature",
          "type": "bytes"
        },
        {
          "internalType": "uint256",
          "name": "_platformId",
          "type": "uint256"
        },
        {
          "internalType": "string",
          "name": "_handle",
          "type": "string"
        }
      ],
      "name": "join",
      "outputs": [],
      "stateMutability": "payable",
      "type": "function"
    },
    {
      "inputs": [
        {
          "internalType": "uint256",
          "name": "",
          "type": "uint256"
        }
      ],
      "name": "members",
      "outputs": [
        {
          "internalType": "bool",
          "name": "",
          "type": "bool"
        }
      ],
      "stateMutability": "view",
      "type": "function"
    },
    {
      "inputs": [],
      "name": "owner",
      "outputs": [
        {
          "internalType": "address",
          "name": "",
          "type": "address"
        }
      ],
      "stateMutability": "view",
      "type": "function"
    },
    {
      "inputs": [],
      "name": "paymasterAddress",
      "outputs": [
        {
          "internalType": "address",
          "name": "",
          "type": "address"
        }
      ],
      "stateMutability": "view",
      "type": "function"
    },
    {
      "inputs": [
        {
          "internalType": "uint256",
          "name": "",
          "type": "uint256"
        }
      ],
      "name": "proposalRequests",
      "outputs": [
        {
          "internalType": "uint256",
          "name": "ownerId",
          "type": "uint256"
        },
        {
          "internalType": "uint256",
          "name": "serviceId",
          "type": "uint256"
        },
        {
          "internalType": "address",
          "name": "rateToken",
          "type": "address"
        },
        {
          "internalType": "uint256",
          "name": "rateAmount",
          "type": "uint256"
        },
        {
          "internalType": "uint256",
          "name": "platformId",
          "type": "uint256"
        },
        {
          "internalType": "string",
          "name": "dataUri",
          "type": "string"
        },
        {
          "internalType": "uint256",
          "name": "expirationDate",
          "type": "uint256"
        },
        {
          "internalType": "enum Hive.ProposalRequestStatus",
          "name": "status",
          "type": "uint8"
        },
        {
          "internalType": "uint256",
          "name": "sharedAmount",
          "type": "uint256"
        }
      ],
      "stateMutability": "view",
      "type": "function"
    },
    {
      "inputs": [
        {
          "internalType": "address",
          "name": "_paymasterAddress",
          "type": "address"
        }
      ],
      "name": "setPaymaster",
      "outputs": [],
      "stateMutability": "nonpayable",
      "type": "function"
    },
    {
      "inputs": [
        {
          "internalType": "uint256",
          "name": "_proposalRequestId",
          "type": "uint256"
        }
      ],
      "name": "shareFunds",
      "outputs": [],
      "stateMutability": "payable",
      "type": "function"
    },
    {
      "inputs": [
        {
          "internalType": "string",
          "name": "_dataUri",
          "type": "string"
        }
      ],
      "name": "updateDataUri",
      "outputs": [],
      "stateMutability": "nonpayable",
      "type": "function"
    },
    {
      "stateMutability": "payable",
      "type": "receive"
    }
  ],
  "bytecode": "0x6080604081815234620001775760a08262002a3380380380916200002482856200017c565b83398101031262000177576200003a82620001b6565b91602090818101519061ffff821682036200017757806200005e85859301620001b6565b926200007b60806200007360608501620001b6565b9301620001b6565b9360018060a01b039788808093169660018060a01b03199a8b968960009d8e5416178d5516866001541617600155168460025416176002551680926005541617600555600354339161ffff60a01b9060a01b169060018060b01b03191617176003556001600854016008556024855180948193631847c06b60e01b835260048301525afa9081156200016a57849162000133575b5083526007905290819020805460ff19166001179055516128679081620001cc8239f35b90508181813d831162000162575b6200014d81836200017c565b810103126200015e5751826200010f565b8380fd5b503d62000141565b50505051903d90823e3d90fd5b600080fd5b601f909101601f19168101906001600160401b03821190821017620001a057604052565b634e487b7160e01b600052604160045260246000fd5b51906001600160a01b0382168203620001775756fe6080604052600436101561001b575b361561001957600080fd5b005b6000803560e01c80631e26ec3914611ad0578063284c65621461195a578063287a591e146113895780632a97fa77146112f957806338fcc692146112b45780633f173526146112915780634f4c1ad0146112685780635daf08ca146112395780637e21349914610fe25780638a9b29eb14610ef95780638da5cb5b14610ed05780639c0f3869146105c0578063a230c52414610592578063a5e9a5e3146101f6578063d867cb7f146101d1578063d9ed1fee146101a85763eb881686146100e2575061000e565b346101a55760203660031901126101a5576004358152600960205260408120805490600381015460018060a01b03600483015416916101706005820154600683015461013060078501611e32565b91600885015496600a60ff60098801541696015496604051998a5260208a01526040890152606088015260808701526101208060a0880152860190611efb565b9260c085015260028110156101915783945060e08401526101008301520390f35b634e487b7160e01b85526021600452602485fd5b80fd5b50346101a557806003193601126101a5576004546040516001600160a01b039091168152602090f35b50346101a557806003193601126101a557602061ffff60035460a01c16604051908152f35b50346101a55760203660031901126101a55761021961021433611f50565b61204b565b6004358152600960205260246040822091600a6040519361023985611ced565b8054855260405161025881610251816001860161214b565b0382611d1f565b6020860152604051610271816102518160028601612188565b60408601526003810154606086015260048101546001600160a01b03166080860152600581015460a0860152600681015460c08601526102b360078201611e32565b60e086015260088101546101008601526102d860ff60098301541661012087016120ff565b01546101408401528054604051631847c06b60e01b81523360048201529260209184919082906001600160a01b03165afa91821561058557819261054d575b50825182146104f257818152600760205261033860ff60408320541661204b565b61012083015160028110156104de57610499576001546001600160a01b031661035f611fd3565b9060608501519060018060a01b036080870151169260a087015160c088015161010060e08a015199015191843b1561049557916103dd88999a6020938a999a956040519b8c9a8b996313ca98db60e01b8b5260048b015260248a015260448901526064880152608487015261010060a4870152610104860190611efb565b9060c48501528284820391600319830160e48701525201925af1801561048a5761045f575b50906004358252600960205260096040832001600160ff19825416179055610428611fd3565b9060405191825260208201527ff3913536f47ce5715fcf97e1e92ab82bc1be4bb4c5f293e991dc612f219d8ae6604060043592a280f35b6001600160401b0381116104765760405238610402565b634e487b7160e01b82526041600452602482fd5b6040513d84823e3d90fd5b8780fd5b60405162461bcd60e51b815260206004820152601f60248201527f50726f706f73616c2072657175657374206973206e6f742070656e64696e67006044820152606490fd5b634e487b7160e01b82526021600452602482fd5b60405162461bcd60e51b815260206004820152602d60248201527f4f776e65722063616e6e6f74206578656375746520697473206f776e2070726f60448201526c1c1bdcd85b081c995c5d595cdd609a1b6064820152608490fd5b9091506020813d60201161057d575b8161056960209383611d1f565b8101031261057957519038610317565b5080fd5b3d915061055c565b50604051903d90823e3d90fd5b50346101a55760203660031901126101a55760206105b66105b1611db5565b611f50565b6040519015158152f35b50346101a5576101003660031901126101a557602435906001600160a01b03821682036101a5576084356001600160401b03811161057957610606903690600401611dcb565b60c4929192356001600160401b038111610ecc57610628903690600401611f20565b93909160e4356001600160401b038111610ec85761064a903690600401611f20565b61065961021498929833611f50565b8615610e8357808703610e3357855b878110610db4575061ffff60035460a01c1686905b828210610d8257612710915003610d445760249460085497602060018060a01b0389541660405198898092631847c06b60e01b82523360048301525afa968715610d39578897610d05575b50604051966106d688611ced565b87526106e1816120e8565b916106ef6040519384611d1f565b8183526020830190368360051b820111610d015780915b8360051b82018310610cf157505050506020860152610724816120e8565b906107326040519283611d1f565b8082526020820198368260051b8201116104955780995b8260051b82018b10610cd057505050604085015260043560608501526001600160a01b0316608084015260443560a084015260643560c084015261078f91369190611d5b565b60e082015260a4356101008201528161012082015281610140820152828252600960205260408220908051825560208101518051906001600160401b038211610b9857600160401b8211610b98576020906001850154836001870155808410610cb3575b500160018401855260208520855b838110610c9f575050505060408101518051906001600160401b038211610b9857600160401b8211610b98576020906002850154836002870155808410610c46575b5001906002840185526020852090855b8160041c8110610bfd5750600f1981168103610bac575b505050606081015160038301556004820160018060a01b036080830151166bffffffffffffffffffffffff60a01b82541617905560a0810151600583015560c0810151600683015560e08101518051906001600160401b038211610b985781906108d76007860154611df8565b601f8111610b5a575b50602090601f8311600114610aeb578692610ae0575b50508160011b916000199060031b1c19161760078301555b6101008101516008830155600982016101208201516002811015610191579161014091600a9360ff80198354169116179055015191015560016008540160085581815260096020526040812091610963611fd3565b8354600385015460018060a01b036004870154166005870154600688015491600889015494604051968752602087015261014060408701526109c06109af610140880160018c0161214b565b878103606089015260028b01612188565b93608087015260a086015260c085015260e084015282810361010084015260078596018054906109ef82611df8565b8084529160018116908115610a995750600114610a3a575b5050506101208201527fe8497acd73f68d3d9873122b907db74a5acb794132385c6af763c7fd10ebf5a99080850390a280f35b86526020862091965085915b818310610a7f5750509490940160200193807fe8497acd73f68d3d9873122b907db74a5acb794132385c6af763c7fd10ebf5a983610a07565b6001816020929493945483858c0101520191019190610a46565b60ff191660208086019190915292151560051b90930190910196508291507fe8497acd73f68d3d9873122b907db74a5acb794132385c6af763c7fd10ebf5a9905083610a07565b0151905086806108f6565b9250600785018652602086209086935b601f1984168510610b3f576001945083601f19811610610b26575b505050811b01600783015561090e565b015160001960f88460031b161c19169055868080610b16565b81810151835560209485019460019093019290910190610afb565b610b889060078701885260208820601f850160051c81019160208610610b8e575b601f0160051c0190612134565b876108e0565b9091508190610b7b565b634e487b7160e01b85526041600452602485fd5b8592865b600f19831683038110610bcc57505060041c015584808061086a565b90936020610bf460019261ffff8851169085851b60031b61ffff811b9283911b169119161790565b95019101610bb0565b86875b60108110610c15575083820155600101610853565b94906020610c3d60019261ffff8551169089851b60031b61ffff811b9283911b169119161790565b92019501610c00565b610c7890600287018852600f84892091601e8760011b1680610c7e575b500160041c810190600f860160041c01612134565b87610843565b6000199081848a0160041c86010191825491890360031b1c1690558b610c63565b600190602084519401938184015501610801565b600186018752828720610cca918101908501612134565b876107f3565b61ffff8b35168b3503610ced578a35815260209a8b019a01610749565b8880fd5b8235815260209283019201610706565b8980fd5b9096506020813d602011610d31575b81610d2160209383611d1f565b81010312610495575195386106c8565b3d9150610d14565b6040513d8a823e3d90fd5b60405162461bcd60e51b81526020600482015260166024820152755368617265732073756d206973206e6f74203130302560501b6044820152606490fd5b610d8d82848c6120b5565b359061ffff8216809203610ced57610dae91610da8916120db565b91612090565b9061067d565b610dbf8189886120b5565b35875260206007815260ff60408920541615610de45750610ddf90612090565b610668565b6084906040519062461bcd60e51b82526004820152602260248201527f4d656d626572206973206e6f742061206d656d626572206f6620746865206869604482015261766560f01b6064820152fd5b60405162461bcd60e51b815260206004820152602260248201527f4d656d6265727320616e6420736861726573206c656e677468206d69736d61746044820152610c6d60f31b6064820152608490fd5b60405162461bcd60e51b815260206004820152601e60248201527f4d656d626572732073686f756c64206265206174206c65617374206f6e6500006044820152606490fd5b8480fd5b8280fd5b50346101a557806003193601126101a5576005546040516001600160a01b039091168152602090f35b50346101a557806003193601126101a5576040519080600654610f1b81611df8565b80855291600191808316908115610fb85750600114610f5d575b610f5985610f4581870382611d1f565b604051918291602083526020830190611efb565b0390f35b9250600683527ff652222313e28459528d920b65115c16c04f3efc82aaedc97be59f3f377c0d3f5b828410610fa0575050508101602001610f4582610f59610f35565b80546020858701810191909152909301928101610f85565b869550610f5996935060209250610f4594915060ff191682840152151560051b8201019293610f35565b5060603660031901126101a5576001600160401b03600435818111610ecc5761100f903690600401611dcb565b91604435818111610ec857611028903690600401611d97565b9260405192602093848101633537b4b760e11b81526024943060601b86840152601883526040830191838310828411176112265760a09083604052845190209360608101947f19457468657265756d205369676e6564204d6573736167653a0a3332000000008652607c820152603c8452019082821090821117611213576040525190206110cd926110c5926110bf913691611d5b565b906125c5565b9190916124c1565b6005546001600160a01b0391908216908216036111db5782829186541660405193848092631847c06b60e01b82523360048301525afa9182156111d057859261117f575b50907f09f489e6eb0f594d1ae6af1e7bf66f628b75c026bf5952b2c5d725d0c8e9d7529360409392821561116c575b505080855260078252828520805460ff1916600117905561115f611fd3565b918351928352820152a180f35b611178925035336126af565b3880611140565b9280925083813d83116111c9575b6111978183611d1f565b81010312610ec857915190917f09f489e6eb0f594d1ae6af1e7bf66f628b75c026bf5952b2c5d725d0c8e9d752611111565b503d61118d565b6040513d87823e3d90fd5b60405162461bcd60e51b81526004810184905260118184015270496e76616c6964207369676e617475726560781b6044820152606490fd5b634e487b7160e01b895260416004528589fd5b634e487b7160e01b8a526041600452868afd5b50346101a55760203660031901126101a55760ff60406020926004358152600784522054166040519015158152f35b50346101a557806003193601126101a5576003546040516001600160a01b039091168152602090f35b50346101a557806003193601126101a55760206112ac611fd3565b604051908152f35b5060603660031901126101a5576112c9611db5565b90604435906001600160401b0382116101a55760206112ac846112ef3660048701611d97565b90602435906126af565b50346101a55760203660031901126101a557611313611db5565b6003546001600160a01b0391908216330361134457166bffffffffffffffffffffffff60a01b600454161760045580f35b60405162461bcd60e51b815260206004820152601960248201527f53656e646572206973206e6f742048697665466163746f7279000000000000006044820152606490fd5b5060203660031901126101a5576004358152600960205260408120604051916113b183611ced565b815483526040516113c981610251816001870161214b565b60208401526040516113e2816102518160028701612188565b604084015260038201546060840190815260048301546001600160a01b03166080850152600583015460a0850152600683015460c085015291600a9061142a60078201611e32565b60e0860152600881015461010086015261144f60ff60098301541661012087016120ff565b01546101408401528060018060a01b0360015416925160246040518095819363ef0e239b60e01b835260048301525afa918215610585578192611873575b5080608060018060a01b0360025416930151602460405180958193630fa683d360e01b835260048301525afa9182156105855781926116d6575b5060a0820151916101408401519280848103116116c25783811461168957825b6020860151518110156115d65761271061151561ffff61150b8460408b01516124ad565b5116878503612121565b0460018060a01b03855416602061152f84828b01516124ad565b516024604051809481936331a9108f60e11b835260048301525afa9081156115cb578691611582575b50606085015161157d93926115789290916001600160a01b031690612764565b612090565b6114e7565b90506020813d6020116115c3575b8161159d60209383611d1f565b810103126115bf5761157d92916115b66115789261248a565b91509192611558565b8580fd5b3d9150611590565b6040513d88823e3d90fd5b5091929060018060a01b0360045416908161164e575b505060043583526009602052600a604084200161160c82840382546120db565b9055611616611fd3565b916040519283520360208201527f3883f7043acc90474d660677ad79e3559193f9b007a3396886c0d1ae9532dd62604060043592a280f35b6116829161271061166a61ffff60035460a01c16868803612121565b6060909301519204916001600160a01b031690612764565b83806115ec565b60405162461bcd60e51b81526020600482015260116024820152704e6f2066756e647320746f20736861726560781b6044820152606490fd5b634e487b7160e01b83526011600452602483fd5b9091503d908183823e6116e98282611d1f565b6020818381010312610ecc578051906001600160401b03821161186f57610220828201848301031261186f5760405192836102208101106001600160401b0361022086011117610b985761022084016040528183018051855261174e9060200161248a565b602085015261176160408484010161248a565b604085015261177460608484010161248a565b60608501528183016080818101519086015260a0808201519086015260c080820151908601526117a69060e00161249e565b60e08501526117ba6101008484010161249e565b6101008501526117cf6101208484010161249e565b6101208501528183016101408181015190860152610160808201519086015261018080820151908601526101a080820151908601526101c09081015190600582101561186b578501526101e0908184840101516001600160401b03811161186b578484010190808401601f8301121561186b5781516118549291850191602001612455565b9084015201610200908101519082015290386114c7565b8680fd5b8380fd5b9091503d908183823e6118868282611d1f565b6020818381010312610ecc578051906001600160401b03821161186f5760c0828201848301031261186f57604051928360c08101106001600160401b0360c086011117610b985760c084016040528282015160058110156115bf578452818301602081810151908601526040808201519086015260600151906001600160401b0382116115bf57808301601f83868601010112156115bf57838301909101805160a094939261193c929084019190602001612455565b60608501520160808181015190840152015160a0820152903861148d565b50346101a55760208060031936011261057957611975611db5565b61198161021433611f50565b6001600160a01b039181831680611a6457506119a1602492479033612764565b806119aa611fd3565b9385541660405193848092631847c06b60e01b82523360048301525afa918215611a59578492611a08575b50916040917f8bb13773f46db3e674bcaa18a92af3253680c613eb6d7eb12688d45dbb50ead5938351928352820152a180f35b9150918282813d8311611a52575b611a208183611d1f565b8101031261186f57905190917f8bb13773f46db3e674bcaa18a92af3253680c613eb6d7eb12688d45dbb50ead56119d5565b503d611a16565b6040513d86823e3d90fd5b81602491604051928380926370a0823160e01b82523060048301525afa9081156111d0578591611aa2575b50611a9d9060249333612764565b6119a1565b90508181813d8311611ac9575b611ab98183611d1f565b81010312610ec857516024611a8f565b503d611aaf565b50346101a557602090816003193601126101a5576001600160401b0391600435838111610ecc57611b05903690600401611d97565b611b1161021433611f50565b602e815103611cba578051938411611ca657611b2e600654611df8565b601f8111611c59575b508193601f8111600114611bb8578084957f1e72c479b6f2a89396870f00df9d05ab7646ee8e49ecd1b03ef2bc230b8da0019591611bad575b508160011b916000199060031b1c1916176006555b611ba7611b90611fd3565b916040805194859485528401526040830190611efb565b0390a180f35b905082015138611b70565b600684527ff652222313e28459528d920b65115c16c04f3efc82aaedc97be59f3f377c0d3f94601f198216855b818110611c4257509582916001937f1e72c479b6f2a89396870f00df9d05ab7646ee8e49ecd1b03ef2bc230b8da001979810611c29575b5050811b01600655611b85565b84015160001960f88460031b161c191690553880611c1c565b848301518855600190970196918501918501611be5565b611ca090600685527ff652222313e28459528d920b65115c16c04f3efc82aaedc97be59f3f377c0d3f601f870160051c810191858810610b8e57601f0160051c0190612134565b38611b37565b634e487b7160e01b83526041600452602483fd5b60405162461bcd60e51b815260048101839052600b60248201526a125b9d985b1a590818da5960aa1b6044820152606490fd5b61016081019081106001600160401b03821117611d0957604052565b634e487b7160e01b600052604160045260246000fd5b90601f801991011681019081106001600160401b03821117611d0957604052565b6001600160401b038111611d0957601f01601f191660200190565b929192611d6782611d40565b91611d756040519384611d1f565b829481845281830111611d92578281602093846000960137010152565b600080fd5b9080601f83011215611d9257816020611db293359101611d5b565b90565b600435906001600160a01b0382168203611d9257565b9181601f84011215611d92578235916001600160401b038311611d925760208381860195010111611d9257565b90600182811c92168015611e28575b6020831014611e1257565b634e487b7160e01b600052602260045260246000fd5b91607f1691611e07565b9060405191826000825492611e4684611df8565b908184526001948581169081600014611eb55750600114611e72575b5050611e7092500383611d1f565b565b9093915060005260209081600020936000915b818310611e9d575050611e7093508201013880611e62565b85548884018501529485019487945091830191611e85565b915050611e7094506020925060ff191682840152151560051b8201013880611e62565b60005b838110611eeb5750506000910152565b8181015183820152602001611edb565b90602091611f1481518092818552858086019101611ed8565b601f01601f1916010190565b9181601f84011215611d92578235916001600160401b038311611d92576020808501948460051b010111611d9257565b60008054604051631847c06b60e01b81526001600160a01b039384166004820152919260209183916024918391165afa90811561048a578291611fa1575b5081526007602052604090205460ff1690565b90506020813d8211611fcb575b81611fbb60209383611d1f565b81010312610579575160ff611f8e565b3d9150611fae565b600054604051631847c06b60e01b815230600482015290602090829060249082906001600160a01b03165afa90811561203f57600091612011575090565b906020823d8211612037575b8161202a60209383611d1f565b810103126101a557505190565b3d915061201d565b6040513d6000823e3d90fd5b1561205257565b60405162461bcd60e51b815260206004820152601660248201527529b2b73232b91034b9903737ba10309036b2b6b132b960511b6044820152606490fd5b600019811461209f5760010190565b634e487b7160e01b600052601160045260246000fd5b91908110156120c55760051b0190565b634e487b7160e01b600052603260045260246000fd5b9190820180921161209f57565b6001600160401b038111611d095760051b60200190565b600282101561210b5752565b634e487b7160e01b600052602160045260246000fd5b8181029291811591840414171561209f57565b81811061213f575050565b60008155600101612134565b90815480825260208092019260005281600020916000905b828210612171575050505090565b835485529384019360019384019390910190612163565b805480835260208093019160005282600020906000915b81600f8401106123935754918482821061237f575b828210612368575b828210612352575b82821061233b575b828210612324575b82821061230d575b8282106122f6575b8282106122df575b8282106122c8575b8282106122b1575b82821061229a575b828210612283575b82821061226c575b828210612255575b82821061223e575b5010612231575b50905090565b60f01c815201803861222b565b6001919461ffff8560e01c16815201930184612224565b6001919461ffff8560d01c1681520193018461221c565b6001919461ffff8560c01c16815201930184612214565b6001919461ffff8560b01c1681520193018461220c565b6001919461ffff8560a01c16815201930184612204565b6001919461ffff8560901c168152019301846121fc565b6001919461ffff8560801c168152019301846121f4565b6001919461ffff8560701c168152019301846121ec565b6001919461ffff8560601c168152019301846121e4565b6001919461ffff8560501c168152019301846121dc565b6001919461ffff8560401c168152019301846121d4565b6001919461ffff8560301c168152019301846121cc565b6001919461ffff85831c168152019301846121c4565b6001919461ffff8560101c168152019301846121bc565b6001919461ffff85168152019301846121b4565b926001610200601092865461ffff80821683528082871c168a84015281604082828d1c168186015282826060828260301c168189015282826080951c1684890152828260a0828260501c16818c0152828260c0951c16848c0152828260e0988d8a848460701c169101521c166101008c0152828260901c166101208c01521c16610140890152828260b01c166101608901521c16610180860152828260d01c166101a08601521c166101c083015260f01c6101e082015201940192019161219f565b9092919261246281611d40565b916124706040519384611d1f565b829482845282820111611d92576020611e70930190611ed8565b51906001600160a01b0382168203611d9257565b519061ffff82168203611d9257565b80518210156120c55760209160051b010190565b600581101561210b57806124d25750565b6001810361251f5760405162461bcd60e51b815260206004820152601860248201527f45434453413a20696e76616c6964207369676e617475726500000000000000006044820152606490fd5b6002810361256c5760405162461bcd60e51b815260206004820152601f60248201527f45434453413a20696e76616c6964207369676e6174757265206c656e677468006044820152606490fd5b60031461257557565b60405162461bcd60e51b815260206004820152602260248201527f45434453413a20696e76616c6964207369676e6174757265202773272076616c604482015261756560f01b6064820152608490fd5b9060418151146000146125f3576125ef916020820151906060604084015193015160001a906125fd565b9091565b5050600090600290565b9291907f7fffffffffffffffffffffffffffffff5d576e7357a4501ddfe92f46681b20a083116126735791608094939160ff602094604051948552168484015260408301526060820152600093849182805260015afa156105855781516001600160a01b0381161561266d579190565b50600190565b50505050600090600390565b3d156126aa573d9061269082611d40565b9161269e6040519384611d1f565b82523d6000602084013e565b606090565b91600092839261270660018060a01b036126f881875416956040519485936020850197631d42fcb560e31b89521660248501526044840152606060648401526084830190611efb565b03601f198101835282611d1f565b519134905af161271461267f565b901561272e57602081805181010312611d92576020015190565b60405162461bcd60e51b815260206004820152600e60248201526d135a5b9d1a5b99c819985a5b195960921b6044820152606490fd5b6001600160a01b03918216806127c757506000809381938293165af161278861267f565b501561279057565b60405162461bcd60e51b815260206004820152600f60248201526e151c985b9cd9995c8819985a5b1959608a1b6044820152606490fd5b9290916040519263a9059cbb60e01b84521660048301526024820152602081604481600080965af1801561048a576127fd575050565b6020813d8211612829575b8161281560209383611d1f565b810103126105795751801515036101a55750565b3d915061280856fea2646970667358221220827b309f300d91f7255db2b5666f5376d9a07594bd670e786868d92ffaa0120b64736f6c63430008110033",
  "linkReferences": {},
  "deployedLinkReferences": {}
}