{
  "_format": "hh-sol-artifact-1",
  "contractName": "HiveFactory",
  "sourceName": "contracts/HiveFactory.sol",
  "abi": [
    {
      "inputs": [
        {
          "internalType": "address",
          "name": "_talentLayerIdAddress",
          "type": "address"
        },
        {
          "internalType": "address",
          "name": "_talentLayerServiceAddress",
          "type": "address"
        },
        {
          "internalType": "address",
          "name": "_talentLayerEscrowAddress",
          "type": "address"
        }
      ],
      "stateMutability": "nonpayable",
      "type": "constructor"
    },
    {
      "anonymous": false,
      "inputs": [
        {
          "indexed": false,
          "internalType": "uint256",
          "name": "id",
          "type": "uint256"
        },
        {
          "indexed": false,
          "internalType": "address",
          "name": "hiveAddress",
          "type": "address"
        },
        {
          "indexed": false,
          "internalType": "uint256",
          "name": "ownerId",
          "type": "uint256"
        },
        {
          "indexed": false,
          "internalType": "uint16",
          "name": "honeyFee",
          "type": "uint16"
        }
      ],
      "name": "HiveCreated",
      "type": "event"
    },
    {
      "inputs": [
        {
          "internalType": "address",
          "name": "_address",
          "type": "address"
        },
        {
          "internalType": "uint256",
          "name": "_platformId",
          "type": "uint256"
        },
        {
          "internalType": "string",
          "name": "_handle",
          "type": "string"
        },
        {
          "internalType": "uint256",
          "name": "_price",
          "type": "uint256"
        }
      ],
      "name": "_mintTlId",
      "outputs": [
        {
          "internalType": "uint256",
          "name": "",
          "type": "uint256"
        }
      ],
      "stateMutability": "payable",
      "type": "function"
    },
    {
      "inputs": [
        {
          "internalType": "uint256",
          "name": "_platformId",
          "type": "uint256"
        },
        {
          "internalType": "string",
          "name": "_groupHandle",
          "type": "string"
        },
        {
          "internalType": "string",
          "name": "_ownerHandle",
          "type": "string"
        },
        {
          "internalType": "uint16",
          "name": "_honeyFee",
          "type": "uint16"
        }
      ],
      "name": "createHive",
      "outputs": [
        {
          "internalType": "uint256",
          "name": "",
          "type": "uint256"
        }
      ],
      "stateMutability": "payable",
      "type": "function"
    }
  ],
  "bytecode": "0x608060405234801561001057600080fd5b5060405161362038038061362083398101604081905261002f9161008d565b600080546001600160a01b039485166001600160a01b0319918216179091556001805493851693821693909317909255600280549190931691161790556100d0565b80516001600160a01b038116811461008857600080fd5b919050565b6000806000606084860312156100a257600080fd5b6100ab84610071565b92506100b960208501610071565b91506100c760408501610071565b90509250925092565b613541806100df6000396000f3fe6080604052600436106100295760003560e01c80633f3049ea1461002e57806350e1b01614610053575b600080fd5b61004161003c36600461039c565b610066565b60405190815260200160405180910390f35b610041610061366004610409565b61016e565b60008054604051829182916001600160a01b03909116908590610091908a908a908a906024016104b4565b60408051601f198184030181529181526020820180516001600160e01b0316631d42fcb560e31b179052516100c691906104fd565b60006040518083038185875af1925050503d8060008114610103576040519150601f19603f3d011682016040523d82523d6000602084013e610108565b606091505b50915091508161014f5760405162461bcd60e51b815260206004820152600e60248201526d135a5b9d1a5b99c819985a5b195960921b604482015260640160405180910390fd5b808060200190518101906101639190610519565b979650505050505050565b60008054604051631847c06b60e01b815233600482015282916001600160a01b031690631847c06b90602401602060405180830381865afa1580156101b7573d6000803e3d6000fd5b505050506040513d601f19601f820116820180604052508101906101db9190610519565b9050806000036101f9576101f633878661003c600234610532565b90505b60008054600154600254604051339388936001600160a01b039182169390821692911690610226906102ec565b6001600160a01b03958616815261ffff909416602085015291841660408401528316606083015291909116608082015260a001604051809103906000f080158015610275573d6000803e3d6000fd5b509050600061028b82898961003c600234610532565b604080518281526001600160a01b038516602082015290810185905261ffff871660608201529091507fbfb38656ca699dcf481d34f0c4dc72b850a17a386e2205bdd17c52b39c5176b09060800160405180910390a1979650505050505050565b612fb78061055583390190565b634e487b7160e01b600052604160045260246000fd5b600082601f83011261032057600080fd5b813567ffffffffffffffff8082111561033b5761033b6102f9565b604051601f8301601f19908116603f01168101908282118183101715610363576103636102f9565b8160405283815286602085880101111561037c57600080fd5b836020870160208301376000602085830101528094505050505092915050565b600080600080608085870312156103b257600080fd5b84356001600160a01b03811681146103c957600080fd5b935060208501359250604085013567ffffffffffffffff8111156103ec57600080fd5b6103f88782880161030f565b949793965093946060013593505050565b6000806000806080858703121561041f57600080fd5b84359350602085013567ffffffffffffffff8082111561043e57600080fd5b61044a8883890161030f565b9450604087013591508082111561046057600080fd5b5061046d8782880161030f565b925050606085013561ffff8116811461048557600080fd5b939692955090935050565b60005b838110156104ab578181015183820152602001610493565b50506000910152565b60018060a01b038416815282602082015260606040820152600082518060608401526104e7816080850160208701610490565b601f01601f191691909101608001949350505050565b6000825161050f818460208701610490565b9190910192915050565b60006020828403121561052b57600080fd5b5051919050565b60008261054f57634e487b7160e01b600052601260045260246000fd5b50049056fe60806040523480156200001157600080fd5b5060405162002fb738038062002fb7833981016040819052620000349162000174565b600080546001600160a01b03199081166001600160a01b03868116919091179092556001805482168584161790556002805460038054909316898516179092559183166001600160b01b031990911617600160a01b61ffff871602179055620000aa60066200014e602090811b620017ab17901c565b60008054604051631847c06b60e01b81526001600160a01b0388811660048301526001936005939092911690631847c06b90602401602060405180830381865afa158015620000fd573d6000803e3d6000fd5b505050506040513d601f19601f82011682018060405250810190620001239190620001ec565b81526020810191909152604001600020805460ff191691151591909117905550620002069350505050565b80546001019055565b80516001600160a01b03811681146200016f57600080fd5b919050565b600080600080600060a086880312156200018d57600080fd5b620001988662000157565b9450602086015161ffff81168114620001b057600080fd5b9350620001c06040870162000157565b9250620001d06060870162000157565b9150620001e06080870162000157565b90509295509295909350565b600060208284031215620001ff57600080fd5b5051919050565b612da180620002166000396000f3fe6080604052600436106100e15760003560e01c80638a9b29eb1161007f578063a230c52411610059578063a230c5241461024a578063a5e9a5e31461026a578063d867cb7f1461028a578063eb881686146102bf57600080fd5b80638a9b29eb146101d05780638da5cb5b146101f25780639c0f38691461022a57600080fd5b806338fcc692116100bb57806338fcc692146101425780633f173526146101685780635daf08ca1461017d5780637e213499146101bd57600080fd5b80631e26ec39146100ed578063284c65621461010f578063287a591e1461012f57600080fd5b366100e857005b600080fd5b3480156100f957600080fd5b5061010d610108366004611f79565b6102f4565b005b34801561011b57600080fd5b5061010d61012a366004611fda565b6103a8565b61010d61013d366004611ff7565b61050f565b610155610150366004612010565b6109f6565b6040519081526020015b60405180910390f35b34801561017457600080fd5b50610155610b21565b34801561018957600080fd5b506101ad610198366004611ff7565b60056020526000908152604090205460ff1681565b604051901515815260200161015f565b61010d6101cb3660046120a9565b610b93565b3480156101dc57600080fd5b506101e5610c82565b60405161015f919061216b565b3480156101fe57600080fd5b50600354610212906001600160a01b031681565b6040516001600160a01b03909116815260200161015f565b34801561023657600080fd5b5061010d6102453660046121c2565b610d10565b34801561025657600080fd5b506101ad610265366004611fda565b6111b3565b34801561027657600080fd5b5061010d610285366004611ff7565b611240565b34801561029657600080fd5b506002546102ac90600160a01b900461ffff1681565b60405161ffff909116815260200161015f565b3480156102cb57600080fd5b506102df6102da366004611ff7565b6116c7565b60405161015f999897969594939291906122af565b6102fd336111b3565b6103225760405162461bcd60e51b815260040161031990612328565b60405180910390fd5b8051602e146103615760405162461bcd60e51b815260206004820152600b60248201526a125b9d985b1a590818da5960aa1b6044820152606401610319565b600461036d82826123e0565b507f7c04794e4125f7b58018a2d56697f5cc4a734d9fcc9785cb90f88c6fbf1a3eb28160405161039d919061216b565b60405180910390a150565b6103b1336111b3565b6103cd5760405162461bcd60e51b815260040161031990612328565b6001600160a01b0381166103eb576103e63382476117b4565b610465565b6040516370a0823160e01b81523060048201526000906001600160a01b038316906370a0823190602401602060405180830381865afa158015610432573d6000803e3d6000fd5b505050506040513d601f19601f82011682018060405250810190610456919061249f565b90506104633383836117b4565b505b7f8bb13773f46db3e674bcaa18a92af3253680c613eb6d7eb12688d45dbb50ead561048e610b21565b600054604051631847c06b60e01b81523360048201526001600160a01b0390911690631847c06b90602401602060405180830381865afa1580156104d6573d6000803e3d6000fd5b505050506040513d601f19601f820116820180604052508101906104fa919061249f565b6040805192835260208301919091520161039d565b600081815260076020908152604080832081516101608101835281548152600182018054845181870281018701909552808552919492938584019390929083018282801561057c57602002820191906000526020600020905b815481526020019060010190808311610568575b50505050508152602001600282018054806020026020016040519081016040528092919081815260200182805480156105fc57602002820191906000526020600020906000905b82829054906101000a900461ffff1661ffff16815260200190600201906020826001010492830192600103820291508084116105c35790505b50505091835250506003820154602082015260048201546001600160a01b03166040820152600582015460608201526006820154608082015260078201805460a09092019161064a90612358565b80601f016020809104026020016040519081016040528092919081815260200182805461067690612358565b80156106c35780601f10610698576101008083540402835291602001916106c3565b820191906000526020600020905b8154815290600101906020018083116106a657829003601f168201915b505050918352505060088201546020820152600982015460409091019060ff1660018111156106f4576106f4612299565b600181111561070557610705612299565b8152600a9190910154602090910152600154606082015160405163ef0e239b60e01b81529293506000926001600160a01b039092169163ef0e239b916107519160040190815260200190565b600060405180830381865afa15801561076e573d6000803e3d6000fd5b505050506040513d6000823e601f3d908101601f191682016040526107969190810190612500565b6002546080820151604051630fa683d360e01b81529293506000926001600160a01b0390921691630fa683d3916107d39160040190815260200190565b600060405180830381865afa1580156107f0573d6000803e3d6000fd5b505050506040513d6000823e601f3d908101601f191682016040526108189190810190612607565b905060008361014001518260a001516108319190612769565b9050600081116108775760405162461bcd60e51b81526020600482015260116024820152704e6f2066756e647320746f20736861726560781b6044820152606401610319565b60005b84602001515181101561098657600061271061ffff16866040015183815181106108a6576108a661277c565b602002602001015161ffff16846108bd9190612792565b6108c791906127a9565b600080546020890151805193945091926001600160a01b0390911691636352211e91869081106108f9576108f961277c565b60200260200101516040518263ffffffff1660e01b815260040161091f91815260200190565b602060405180830381865afa15801561093c573d6000803e3d6000fd5b505050506040513d601f19601f8201168201806040525081019061096091906127cb565b9050610971818660600151846117b4565b5050808061097e906127e8565b91505061087a565b506000858152600760205260408120600a0180548392906109a8908490612801565b909155508590507f3883f7043acc90474d660677ad79e3559193f9b007a3396886c0d1ae9532dd626109d8610b21565b60408051918252602082018590520160405180910390a25050505050565b6000610a20604051806040016040528060078152602001666d696e74696e6760c81b8152506118d8565b6000805460405182916001600160a01b0316903490610a4790899089908990602401612814565b60408051601f198184030181529181526020820180516001600160e01b0316631d42fcb560e31b17905251610a7c9190612844565b60006040518083038185875af1925050503d8060008114610ab9576040519150601f19603f3d011682016040523d82523d6000602084013e610abe565b606091505b509150915081610b015760405162461bcd60e51b815260206004820152600e60248201526d135a5b9d1a5b99c819985a5b195960921b6044820152606401610319565b80806020019051810190610b15919061249f565b925050505b9392505050565b60008054604051631847c06b60e01b81523060048201526001600160a01b0390911690631847c06b90602401602060405180830381865afa158015610b6a573d6000803e3d6000fd5b505050506040513d601f19601f82011682018060405250810190610b8e919061249f565b905090565b610b9d848461191e565b60008054604051631847c06b60e01b81523360048201526001600160a01b0390911690631847c06b90602401602060405180830381865afa158015610be6573d6000803e3d6000fd5b505050506040513d601f19601f82011682018060405250810190610c0a919061249f565b905080600003610c2257610c1f3384846109f6565b90505b6000818152600560205260409020805460ff191660011790557f09f489e6eb0f594d1ae6af1e7bf66f628b75c026bf5952b2c5d725d0c8e9d752610c64610b21565b60408051918252602082018490520160405180910390a15050505050565b60048054610c8f90612358565b80601f0160208091040260200160405190810160405280929190818152602001828054610cbb90612358565b8015610d085780601f10610cdd57610100808354040283529160200191610d08565b820191906000526020600020905b815481529060010190602001808311610ceb57829003601f168201915b505050505081565b610d19336111b3565b610d355760405162461bcd60e51b815260040161031990612328565b82610d825760405162461bcd60e51b815260206004820152601e60248201527f4d656d626572732073686f756c64206265206174206c65617374206f6e6500006044820152606401610319565b828114610ddc5760405162461bcd60e51b815260206004820152602260248201527f4d656d6265727320616e6420736861726573206c656e677468206d69736d61746044820152610c6d60f31b6064820152608401610319565b60005b83811015610e835760056000868684818110610dfd57610dfd61277c565b602090810292909201358352508101919091526040016000205460ff16610e715760405162461bcd60e51b815260206004820152602260248201527f4d656d626572206973206e6f742061206d656d626572206f6620746865206869604482015261766560f01b6064820152608401610319565b80610e7b816127e8565b915050610ddf565b50600254600160a01b900461ffff1660005b82811015610ee657838382818110610eaf57610eaf61277c565b9050602002016020810190610ec49190612860565b610ed29061ffff1683612801565b915080610ede816127e8565b915050610e95565b506127108114610f315760405162461bcd60e51b81526020600482015260166024820152755368617265732073756d206973206e6f74203130302560501b6044820152606401610319565b6000610f3c60065490565b60408051610160810191829052600054631847c06b60e01b9092523361016482015291925081906001600160a01b0316631847c06b6101848301602060405180830381865afa158015610f93573d6000803e3d6000fd5b505050506040513d601f19601f82011682018060405250810190610fb7919061249f565b81526020018787808060200260200160405190810160405280939291908181526020018383602002808284376000920191909152505050908252506040805160208781028281018201909352878252928301929091889188918291850190849080828437600081840152601f19601f8201169050808301925050505050505081526020018e81526020018d6001600160a01b031681526020018c81526020018b81526020018a8a8080601f0160208091040260200160405190810160405280939291908181526020018383808284376000920182905250938552505050602082018a905260409091019081526000602091820181905283815260078252604090208251815582820151805191926110d692600185019290910190611d6b565b50604082015180516110f2916002840191602090910190611db6565b506060820151600382015560808201516004820180546001600160a01b0319166001600160a01b0390921691909117905560a0820151600582015560c0820151600682015560e0820151600782019061114b90826123e0565b50610100820151600882015561012082015160098201805460ff19166001838181111561117a5761117a612299565b021790555061014082015181600a015590505061119b600680546001019055565b6111a481611a43565b50505050505050505050505050565b60008054604051631847c06b60e01b81526001600160a01b0384811660048301526005928492911690631847c06b90602401602060405180830381865afa158015611202573d6000803e3d6000fd5b505050506040513d601f19601f82011682018060405250810190611226919061249f565b815260208101919091526040016000205460ff1692915050565b611249336111b3565b6112655760405162461bcd60e51b815260040161031990612328565b60008181526007602090815260408083208151610160810183528154815260018201805484518187028101870190955280855291949293858401939092908301828280156112d257602002820191906000526020600020905b8154815260200190600101908083116112be575b505050505081526020016002820180548060200260200160405190810160405280929190818152602001828054801561135257602002820191906000526020600020906000905b82829054906101000a900461ffff1661ffff16815260200190600201906020826001010492830192600103820291508084116113195790505b50505091835250506003820154602082015260048201546001600160a01b03166040820152600582015460608201526006820154608082015260078201805460a0909201916113a090612358565b80601f01602080910402602001604051908101604052809291908181526020018280546113cc90612358565b80156114195780601f106113ee57610100808354040283529160200191611419565b820191906000526020600020905b8154815290600101906020018083116113fc57829003601f168201915b505050918352505060088201546020820152600982015460409091019060ff16600181111561144a5761144a612299565b600181111561145b5761145b612299565b8152600a919091015460209091015260008054604051631847c06b60e01b815233600482015292935090916001600160a01b0390911690631847c06b90602401602060405180830381865afa1580156114b8573d6000803e3d6000fd5b505050506040513d601f19601f820116820180604052508101906114dc919061249f565b825190915081036115455760405162461bcd60e51b815260206004820152602d60248201527f4f776e65722063616e6e6f74206578656375746520697473206f776e2070726f60448201526c1c1bdcd85b081c995c5d595cdd609a1b6064820152608401610319565b60008181526005602052604090205460ff166115735760405162461bcd60e51b815260040161031990612328565b6000826101200151600181111561158c5761158c612299565b146115d95760405162461bcd60e51b815260206004820152601f60248201527f50726f706f73616c2072657175657374206973206e6f742070656e64696e67006044820152606401610319565b6001546001600160a01b03166313ca98db6115f2610b21565b846060015185608001518660a001518760c001518860e001518961010001516040518863ffffffff1660e01b8152600401611633979695949392919061287d565b600060405180830381600087803b15801561164d57600080fd5b505af1158015611661573d6000803e3d6000fd5b5050506000848152600760205260409020600901805460ff1916600117905550827ff3913536f47ce5715fcf97e1e92ab82bc1be4bb4c5f293e991dc612f219d8ae66116ab610b21565b60408051918252602082018590520160405180910390a2505050565b6007602081905260009182526040909120805460038201546004830154600584015460068501549585018054949693956001600160a01b03909316949193929161171090612358565b80601f016020809104026020016040519081016040528092919081815260200182805461173c90612358565b80156117895780601f1061175e57610100808354040283529160200191611789565b820191906000526020600020905b81548152906001019060200180831161176c57829003601f168201915b5050505060088301546009840154600a909401549293909260ff909116915089565b80546001019055565b6001600160a01b038216600003611860576000836001600160a01b03168260405160006040518083038185875af1925050503d8060008114611812576040519150601f19603f3d011682016040523d82523d6000602084013e611817565b606091505b505090508061185a5760405162461bcd60e51b815260206004820152600f60248201526e151c985b9cd9995c8819985a5b1959608a1b6044820152606401610319565b50505050565b60405163a9059cbb60e01b81526001600160a01b0384811660048301526024820183905283169063a9059cbb906044016020604051808303816000875af11580156118af573d6000803e3d6000fd5b505050506040513d601f19601f8201168201806040525081019061185a91906128db565b505050565b61191b816040516024016118ec919061216b565b60408051601f198184030181529190526020810180516001600160e01b031663104c13eb60e21b179052611ad1565b50565b60408051633537b4b760e11b6020808301919091523060601b6bffffffffffffffffffffffff19166024830152825160188184030181526038830184528051908201207f19457468657265756d205369676e6564204d6573736167653a0a33320000000060588401526074808401829052845180850390910181526094909301909352815191012060006119e88286868080601f016020809104026020016040519081016040528093929190818152602001838380828437600092019190915250611af292505050565b6003549091506001600160a01b03808316911614611a3c5760405162461bcd60e51b8152602060048201526011602482015270496e76616c6964207369676e617475726560781b6044820152606401610319565b5050505050565b6000818152600760205260409020817fe8497acd73f68d3d9873122b907db74a5acb794132385c6af763c7fd10ebf5a9611a7b610b21565b835460038501546004860154600587015460068801546008890154604051611ac597969560018c019560028d019591946001600160a01b03909116939192909160078e0191612cb5565b60405180910390a25050565b80516a636f6e736f6c652e6c6f67602083016000808483855afa5050505050565b6000806000611b018585611b18565b91509150611b0e81611b5d565b5090505b92915050565b6000808251604103611b4e5760208301516040840151606085015160001a611b4287828585611ca7565b94509450505050611b56565b506000905060025b9250929050565b6000816004811115611b7157611b71612299565b03611b795750565b6001816004811115611b8d57611b8d612299565b03611bda5760405162461bcd60e51b815260206004820152601860248201527f45434453413a20696e76616c6964207369676e617475726500000000000000006044820152606401610319565b6002816004811115611bee57611bee612299565b03611c3b5760405162461bcd60e51b815260206004820152601f60248201527f45434453413a20696e76616c6964207369676e6174757265206c656e677468006044820152606401610319565b6003816004811115611c4f57611c4f612299565b0361191b5760405162461bcd60e51b815260206004820152602260248201527f45434453413a20696e76616c6964207369676e6174757265202773272076616c604482015261756560f01b6064820152608401610319565b6000807f7fffffffffffffffffffffffffffffff5d576e7357a4501ddfe92f46681b20a0831115611cde5750600090506003611d62565b6040805160008082526020820180845289905260ff881692820192909252606081018690526080810185905260019060a0016020604051602081039080840390855afa158015611d32573d6000803e3d6000fd5b5050604051601f1901519150506001600160a01b038116611d5b57600060019250925050611d62565b9150600090505b94509492505050565b828054828255906000526020600020908101928215611da6579160200282015b82811115611da6578251825591602001919060010190611d8b565b50611db2929150611e56565b5090565b82805482825590600052602060002090600f01601090048101928215611da65791602002820160005b83821115611e1f57835183826101000a81548161ffff021916908361ffff1602179055509260200192600201602081600101049283019260010302611ddf565b8015611e4d5782816101000a81549061ffff0219169055600201602081600101049283019260010302611e1f565b5050611db29291505b5b80821115611db25760008155600101611e57565b634e487b7160e01b600052604160045260246000fd5b60405160c081016001600160401b0381118282101715611ea357611ea3611e6b565b60405290565b60405161022081016001600160401b0381118282101715611ea357611ea3611e6b565b604051601f8201601f191681016001600160401b0381118282101715611ef457611ef4611e6b565b604052919050565b60006001600160401b03821115611f1557611f15611e6b565b50601f01601f191660200190565b600082601f830112611f3457600080fd5b8135611f47611f4282611efc565b611ecc565b818152846020838601011115611f5c57600080fd5b816020850160208301376000918101602001919091529392505050565b600060208284031215611f8b57600080fd5b81356001600160401b03811115611fa157600080fd5b611fad84828501611f23565b949350505050565b6001600160a01b038116811461191b57600080fd5b8035611fd581611fb5565b919050565b600060208284031215611fec57600080fd5b8135610b1a81611fb5565b60006020828403121561200957600080fd5b5035919050565b60008060006060848603121561202557600080fd5b833561203081611fb5565b92506020840135915060408401356001600160401b0381111561205257600080fd5b61205e86828701611f23565b9150509250925092565b60008083601f84011261207a57600080fd5b5081356001600160401b0381111561209157600080fd5b602083019150836020828501011115611b5657600080fd5b600080600080606085870312156120bf57600080fd5b84356001600160401b03808211156120d657600080fd5b6120e288838901612068565b909650945060208701359350604087013591508082111561210257600080fd5b5061210f87828801611f23565b91505092959194509250565b60005b8381101561213657818101518382015260200161211e565b50506000910152565b6000815180845261215781602086016020860161211b565b601f01601f19169290920160200192915050565b602081526000610b1a602083018461213f565b60008083601f84011261219057600080fd5b5081356001600160401b038111156121a757600080fd5b6020830191508360208260051b8501011115611b5657600080fd5b60008060008060008060008060008060006101008c8e0312156121e457600080fd5b8b359a506121f460208d01611fca565b995060408c0135985060608c013597506001600160401b038060808e0135111561221d57600080fd5b61222d8e60808f01358f01612068565b909850965060a08d0135955060c08d013581101561224a57600080fd5b61225a8e60c08f01358f0161217e565b909550935060e08d013581101561227057600080fd5b506122818d60e08e01358e0161217e565b81935080925050509295989b509295989b9093969950565b634e487b7160e01b600052602160045260246000fd5b60006101208b83528a602084015260018060a01b038a1660408401528860608401528760808401528060a08401526122e98184018861213f565b9150508460c08301526002841061231057634e487b7160e01b600052602160045260246000fd5b60e08201939093526101000152979650505050505050565b60208082526016908201527529b2b73232b91034b9903737ba10309036b2b6b132b960511b604082015260600190565b600181811c9082168061236c57607f821691505b60208210810361238c57634e487b7160e01b600052602260045260246000fd5b50919050565b601f8211156118d357600081815260208120601f850160051c810160208610156123b95750805b601f850160051c820191505b818110156123d8578281556001016123c5565b505050505050565b81516001600160401b038111156123f9576123f9611e6b565b61240d816124078454612358565b84612392565b602080601f831160018114612442576000841561242a5750858301515b600019600386901b1c1916600185901b1785556123d8565b600085815260208120601f198616915b8281101561247157888601518255948401946001909101908401612452565b508582101561248f5787850151600019600388901b60f8161c191681555b5050505050600190811b01905550565b6000602082840312156124b157600080fd5b5051919050565b6005811061191b57600080fd5b8051611fd5816124b8565b60006124de611f4284611efc565b90508281528383830111156124f257600080fd5b610b1a83602083018461211b565b60006020828403121561251257600080fd5b81516001600160401b038082111561252957600080fd5b9083019060c0828603121561253d57600080fd5b612545611e81565b8251612550816124b8565b80825250602083015160208201526040830151604082015260608301518281111561257a57600080fd5b83019150601f8201861361258d57600080fd5b61259c868351602085016124d0565b60608201526080830151608082015260a083015160a082015280935050505092915050565b8051611fd581611fb5565b61ffff8116811461191b57600080fd5b8051611fd5816125cc565b600082601f8301126125f857600080fd5b610b1a838351602085016124d0565b60006020828403121561261957600080fd5b81516001600160401b038082111561263057600080fd5b90830190610220828603121561264557600080fd5b61264d611ea9565b8251815261265d602084016125c1565b602082015261266e604084016125c1565b604082015261267f606084016125c1565b60608201526080830151608082015260a083015160a082015260c083015160c08201526126ae60e084016125dc565b60e08201526101006126c18185016125dc565b908201526101206126d38482016125dc565b908201526101408381015190820152610160808401519082015261018080840151908201526101a080840151908201526101c06127118185016124c5565b908201526101e0838101518381111561272957600080fd5b612735888287016125e7565b91830191909152506102009283015192810192909252509392505050565b634e487b7160e01b600052601160045260246000fd5b81810381811115611b1257611b12612753565b634e487b7160e01b600052603260045260246000fd5b8082028115828204841417611b1257611b12612753565b6000826127c657634e487b7160e01b600052601260045260246000fd5b500490565b6000602082840312156127dd57600080fd5b8151610b1a81611fb5565b6000600182016127fa576127fa612753565b5060010190565b80820180821115611b1257611b12612753565b60018060a01b038416815282602082015260606040820152600061283b606083018461213f565b95945050505050565b6000825161285681846020870161211b565b9190910192915050565b60006020828403121561287257600080fd5b8135610b1a816125cc565b600061010089835288602084015260018060a01b03881660408401528660608401528560808401528060a08401526128b78184018661213f565b60c0840194909452505080820360e090910152600081526020019695505050505050565b6000602082840312156128ed57600080fd5b81518015158114610b1a57600080fd5b805480835260008281526020808220940193909190825b82600f82011015612a6557815461ffff8082168852602061293f818a01838560101c1661ffff169052565b6040612954818b018486851c1661ffff169052565b6060915061296c828b01848660301c1661ffff169052565b6080612981818c018587851c1661ffff169052565b60a09150612999828c01858760501c1661ffff169052565b60c06129ae818d018688871c1661ffff169052565b60e093506129c6848d01868860701c1661ffff169052565b61ffff86831c8616166101008d01526129eb6101208d01868860901c1661ffff169052565b61ffff86841c8616166101408d0152612a106101608d01868860b01c1661ffff169052565b61ffff86821c8616166101808d0152505050612a386101a08a01838560d01c1661ffff169052565b82901c1661ffff166101c088015260f01c6101e08701526102009095019460019190910190601001612914565b90549082811015612a815761ffff821686526020909501946001015b82811015612a9e5761ffff601083901c1686526020909501946001015b82811015612abc57602082901c61ffff168652602095909501946001015b82811015612ad95761ffff603083901c1686526020909501946001015b82811015612af65761ffff604083901c1686526020909501946001015b82811015612b135761ffff605083901c1686526020909501946001015b82811015612b305761ffff606083901c1686526020909501946001015b82811015612b4d5761ffff607083901c1686526020909501946001015b82811015612b6a5761ffff608083901c1686526020909501946001015b82811015612b875761ffff609083901c1686526020909501946001015b82811015612ba45761ffff60a083901c1686526020909501946001015b82811015612bc15761ffff60b083901c1686526020909501946001015b82811015612bde5761ffff60c083901c1686526020909501946001015b82811015612bfb5761ffff60d083901c1686526020909501946001015b82811015612c185761ffff60e083901c1686526020909501946001015b82811015612c2e5760f082901c86526020860195505b5093949350505050565b60008154612c4581612358565b808552602060018381168015612c625760018114612c7c57612caa565b60ff1985168884015283151560051b880183019550612caa565b866000528260002060005b85811015612ca25781548a8201860152908301908401612c87565b890184019650505b505050505092915050565b8a815260208082018b9052610140604083018190528a5490830181905260008b81528281209092610160850192845b81811015612d0057835485529382019360019384019301612ce4565b505050508281036060840152612d16818b6128fd565b9050886080840152612d3360a08401896001600160a01b03169052565b8660c08401528560e0840152828103610100840152612d528186612c38565b915050826101208301529b9a505050505050505050505056fea2646970667358221220a9d7021cd5f9a6baa0240d8acf25467ecfae741f02b1fa6573965a4b62f2bcd464736f6c63430008110033a2646970667358221220bd90b665fe635db4a21526fe72eb27435980b413e0bd7e545e4710ada3ceb65464736f6c63430008110033",
  "linkReferences": {},
  "deployedLinkReferences": {}
}